{
  "_format": "hh-sol-artifact-1",
  "contractName": "NFTMarketplaceV1",
  "sourceName": "contracts/NFTMarketplaceV1.sol",
  "abi": [
    {
      "inputs": [],
      "stateMutability": "nonpayable",
      "type": "constructor"
    },
    {
      "anonymous": false,
      "inputs": [
        {
          "indexed": true,
          "internalType": "bytes32",
          "name": "offeringId",
          "type": "bytes32"
        },
        {
          "indexed": true,
          "internalType": "address",
          "name": "buyer",
          "type": "address"
        }
      ],
      "name": "OfferingClosed",
      "type": "event"
    },
    {
      "anonymous": false,
      "inputs": [
        {
          "indexed": true,
          "internalType": "bytes32",
          "name": "offeringId",
          "type": "bytes32"
        },
        {
          "indexed": true,
          "internalType": "address",
          "name": "hostContract",
          "type": "address"
        },
        {
          "indexed": false,
          "internalType": "uint256",
          "name": "tokenId",
          "type": "uint256"
        },
        {
          "indexed": false,
          "internalType": "uint256",
          "name": "price",
          "type": "uint256"
        },
        {
          "indexed": false,
          "internalType": "address",
          "name": "provider",
          "type": "address"
        },
        {
          "indexed": false,
          "internalType": "uint256",
          "name": "providerAmount",
          "type": "uint256"
        },
        {
          "indexed": false,
          "internalType": "address",
          "name": "operator",
          "type": "address"
        },
        {
          "indexed": false,
          "internalType": "uint256",
          "name": "operatorAmount",
          "type": "uint256"
        },
        {
          "indexed": false,
          "internalType": "address",
          "name": "creator",
          "type": "address"
        },
        {
          "indexed": false,
          "internalType": "uint256",
          "name": "creatorAmount",
          "type": "uint256"
        },
        {
          "indexed": false,
          "internalType": "address",
          "name": "seller",
          "type": "address"
        },
        {
          "indexed": false,
          "internalType": "uint256",
          "name": "sellerAmount",
          "type": "uint256"
        }
      ],
      "name": "OfferingPlaced",
      "type": "event"
    },
    {
      "anonymous": false,
      "inputs": [
        {
          "indexed": true,
          "internalType": "bytes32",
          "name": "offeringId",
          "type": "bytes32"
        },
        {
          "indexed": false,
          "internalType": "uint256",
          "name": "price",
          "type": "uint256"
        }
      ],
      "name": "OfferingUpdated",
      "type": "event"
    },
    {
      "anonymous": false,
      "inputs": [
        {
          "indexed": true,
          "internalType": "bytes32",
          "name": "offeringId",
          "type": "bytes32"
        },
        {
          "indexed": true,
          "internalType": "address",
          "name": "seller",
          "type": "address"
        }
      ],
      "name": "OfferingWithdrawn",
      "type": "event"
    },
    {
      "inputs": [],
      "name": "_INTERFACE_ID_ERC1155",
      "outputs": [
        {
          "internalType": "bytes4",
          "name": "",
          "type": "bytes4"
        }
      ],
      "stateMutability": "view",
      "type": "function"
    },
    {
      "inputs": [],
      "name": "_INTERFACE_ID_ERC721",
      "outputs": [
        {
          "internalType": "bytes4",
          "name": "",
          "type": "bytes4"
        }
      ],
      "stateMutability": "view",
      "type": "function"
    },
    {
      "inputs": [
        {
          "internalType": "bytes32",
          "name": "_offeringId",
          "type": "bytes32"
        },
        {
          "internalType": "uint256",
          "name": "_amount",
          "type": "uint256"
        }
      ],
      "name": "closeOffering",
      "outputs": [],
      "stateMutability": "payable",
      "type": "function"
    },
    {
      "inputs": [
        {
          "internalType": "address",
          "name": "_address",
          "type": "address"
        }
      ],
      "name": "getRoyaltyFee",
      "outputs": [
        {
          "internalType": "uint16",
          "name": "",
          "type": "uint16"
        }
      ],
      "stateMutability": "view",
      "type": "function"
    },
    {
      "inputs": [
        {
          "internalType": "address",
          "name": "_hostContract",
          "type": "address"
        },
        {
          "internalType": "uint256",
          "name": "_tokenId",
          "type": "uint256"
        },
        {
          "internalType": "uint256",
          "name": "_price",
          "type": "uint256"
        },
        {
          "internalType": "address",
          "name": "_operatorReceiver",
          "type": "address"
        },
        {
          "internalType": "uint256",
          "name": "_amount",
          "type": "uint256"
        }
      ],
      "name": "placeOffering",
      "outputs": [],
      "stateMutability": "nonpayable",
      "type": "function"
    },
    {
      "inputs": [
        {
          "internalType": "address",
          "name": "_hostContract",
          "type": "address"
        },
        {
          "internalType": "uint256",
          "name": "_tokenId",
          "type": "uint256"
        },
        {
          "internalType": "uint256",
          "name": "_price",
          "type": "uint256"
        },
        {
          "internalType": "address",
          "name": "_operatorReceiver",
          "type": "address"
        },
        {
          "internalType": "uint256",
          "name": "_amount",
          "type": "uint256"
        }
      ],
      "name": "previewPlaceOffering",
      "outputs": [
        {
          "internalType": "uint256",
          "name": "sellerCut",
          "type": "uint256"
        },
        {
          "internalType": "address",
          "name": "artist",
          "type": "address"
        }
      ],
      "stateMutability": "view",
      "type": "function"
    },
    {
      "inputs": [
        {
          "internalType": "uint16",
          "name": "_newFee",
          "type": "uint16"
        }
      ],
      "name": "setRoyaltyFee",
      "outputs": [],
      "stateMutability": "nonpayable",
      "type": "function"
    },
    {
      "inputs": [
        {
          "internalType": "bytes32",
          "name": "_offeringId",
          "type": "bytes32"
        },
        {
          "internalType": "uint256",
          "name": "_price",
          "type": "uint256"
        }
      ],
      "name": "updateOffering",
      "outputs": [],
      "stateMutability": "nonpayable",
      "type": "function"
    },
    {
      "inputs": [
        {
          "internalType": "bytes32",
          "name": "_offeringId",
          "type": "bytes32"
        }
      ],
      "name": "viewOffering",
      "outputs": [
        {
          "internalType": "address",
          "name": "",
          "type": "address"
        },
        {
          "internalType": "uint256",
          "name": "",
          "type": "uint256"
        },
        {
          "internalType": "uint256",
          "name": "",
          "type": "uint256"
        },
        {
          "internalType": "bool",
          "name": "",
          "type": "bool"
        },
        {
          "internalType": "uint256",
          "name": "",
          "type": "uint256"
        }
      ],
      "stateMutability": "view",
      "type": "function"
    },
    {
      "inputs": [],
      "name": "viewProvider",
      "outputs": [
        {
          "internalType": "address",
          "name": "",
          "type": "address"
        }
      ],
      "stateMutability": "view",
      "type": "function"
    },
    {
      "inputs": [
        {
          "internalType": "bytes32",
          "name": "_offeringId",
          "type": "bytes32"
        }
      ],
      "name": "withdrawOffering",
      "outputs": [],
      "stateMutability": "nonpayable",
      "type": "function"
    }
  ],
  "bytecode": "0x608060405234801561001057600080fd5b50600080546001600160a01b03191633179055611bab806100326000396000f3fe60806040526004361061009c5760003560e01c8063ac323a1f11610064578063ac323a1f146101a2578063bdac0c1e146101e2578063dece6854146101f5578063e25e0dd214610210578063ed1f37d21461029c578063f17a3e08146102bc57600080fd5b806303053210146100a1578063233831cd146100f3578063283cbe4d1461011b5780638d396a991461013d5780639acc97d81461017a575b600080fd5b3480156100ad57600080fd5b506100db6100bc3660046117bb565b6001600160a01b031660009081526003602052604090205461ffff1690565b60405161ffff90911681526020015b60405180910390f35b3480156100ff57600080fd5b5061010e636cdb3d1360e11b81565b6040516100ea91906117df565b34801561012757600080fd5b5061013b6101363660046117f4565b6102dc565b005b34801561014957600080fd5b5061015d6101583660046117f4565b6106c5565b604080519283526001600160a01b039091166020830152016100ea565b34801561018657600080fd5b506000546040516001600160a01b0390911681526020016100ea565b3480156101ae57600080fd5b5061013b6101bd366004611846565b336000908152600360205260409020805461ffff191661ffff92909216919091179055565b61013b6101f036600461186a565b610879565b34801561020157600080fd5b5061010e6380ac58cd60e01b81565b34801561021c57600080fd5b5061026861022b36600461188c565b600090815260026020819052604090912060018101549181015460038201548254600c909301546001600160a01b03909416949193909260ff1691565b604080516001600160a01b03909616865260208601949094529284019190915215156060830152608082015260a0016100ea565b3480156102a857600080fd5b5061013b6102b736600461188c565b610d28565b3480156102c857600080fd5b5061013b6102d736600461186a565b610e5a565b6040516301ffc9a760e01b81526001600160a01b038616906301ffc9a79061030f906380ac58cd60e01b906004016117df565b60206040518083038186803b15801561032757600080fd5b505afa15801561033b573d6000803e3d6000fd5b505050506040513d601f19601f8201168201806040525081019061035f91906118a5565b1561043457846001821461038e5760405162461bcd60e51b8152600401610385906118c7565b60405180910390fd5b6040516331a9108f60e11b81526004810186905233906001600160a01b03831690636352211e9060240160206040518083038186803b1580156103d057600080fd5b505afa1580156103e4573d6000803e3d6000fd5b505050506040513d601f19601f82011682018060405250810190610408919061190d565b6001600160a01b03161461042e5760405162461bcd60e51b81526004016103859061192a565b5061055c565b6040516301ffc9a760e01b81526001600160a01b038616906301ffc9a79061046790636cdb3d1360e11b906004016117df565b60206040518083038186803b15801561047f57600080fd5b505afa158015610493573d6000803e3d6000fd5b505050506040513d601f19601f820116820180604052508101906104b791906118a5565b1561055c57604051627eeac760e11b815233600482015260248101859052859082906001600160a01b0383169062fdd58e9060440160206040518083038186803b15801561050457600080fd5b505afa158015610518573d6000803e3d6000fd5b505050506040513d601f19601f8201168201806040525081019061053c9190611971565b101561055a5760405162461bcd60e51b81526004016103859061192a565b505b6001546040805160208101929092526bffffffffffffffffffffffff19606088901b16908201526054810185905260009060740160408051808303601f19018152918152815160209283012060008181526002938490529182208054610100600160a81b03191633610100021781556001810180546001600160a01b0319166001600160a01b038c161790559283018890556003830187905560049092018490559091508080808061060f868a8a611208565b94509450945094509450600180600082825461062b91906119a0565b9091555050600054604080518c8152602081018c90526001600160a01b0392831681830152606081018890528a8316608082015260a0810187905285831660c082015260e081018590523361010082015261012081018490529051918d169188917f89ce14e74968e046cf0ff59eca97183906b42a294af1c3ed1ab94b5d7799421091908190036101400190a35050505050505050505050565b600080806106d384876119b8565b600080546001600160a01b0316815260036020526040812054919250906106ff90839061ffff16611478565b905061070b81836119d7565b6001600160a01b0387166000908152600360205260408120549193509061073790849061ffff16611478565b905061074381846119d7565b6040516301ffc9a760e01b815290935060009081906001600160a01b038d16906301ffc9a79061077e9063152a902d60e11b906004016117df565b60206040518083038186803b15801561079657600080fd5b505afa1580156107aa573d6000803e3d6000fd5b505050506040513d601f19601f820116820180604052508101906107ce91906118a5565b6107da57600080610858565b60405163152a902d60e11b8152600481018c9052602481018690526001600160a01b038d1690632a55205a90604401604080518083038186803b15801561082057600080fd5b505afa158015610834573d6000803e3d6000fd5b505050506040513d601f19601f8201168201806040525081019061085891906119ee565b909250905061086781866119d7565b9c919b50909950505050505050505050565b6000828152600260205260409020600301543410156108da5760405162461bcd60e51b815260206004820152601760248201527f4e6f7420656e6f7567682066756e647320746f206275790000000000000000006044820152606401610385565b600082815260026020526040908190206001015490516301ffc9a760e01b81526001600160a01b03909116906301ffc9a790610921906380ac58cd60e01b906004016117df565b60206040518083038186803b15801561093957600080fd5b505afa15801561094d573d6000803e3d6000fd5b505050506040513d601f19601f8201168201806040525081019061097191906118a5565b15610b055760008281526002602052604090206001908101546001600160a01b03169082146109b25760405162461bcd60e51b8152600401610385906118c7565b600083815260026020819052604091829020805491015491516331a9108f60e11b8152600481019290925261010090046001600160a01b039081169190831690636352211e9060240160206040518083038186803b158015610a1357600080fd5b505afa158015610a27573d6000803e3d6000fd5b505050506040513d601f19601f82011682018060405250810190610a4b919061190d565b6001600160a01b031614610a715760405162461bcd60e51b815260040161038590611a1c565b610a7b838361149e565b60008381526002602081905260409182902080549101549151632142170760e11b81526001600160a01b036101009092048216600482015233602482015260448101929092528216906342842e0e90606401600060405180830381600087803b158015610ae757600080fd5b505af1158015610afb573d6000803e3d6000fd5b5050505050610cf7565b600082815260026020526040908190206001015490516301ffc9a760e01b81526001600160a01b03909116906301ffc9a790610b4c90636cdb3d1360e11b906004016117df565b60206040518083038186803b158015610b6457600080fd5b505afa158015610b78573d6000803e3d6000fd5b505050506040513d601f19601f82011682018060405250810190610b9c91906118a5565b15610cf7576000828152600260208190526040918290206001810154815491909201549251627eeac760e11b81526001600160a01b0361010090920482166004820152602481019390935216908290829062fdd58e9060440160206040518083038186803b158015610c0d57600080fd5b505afa158015610c21573d6000803e3d6000fd5b505050506040513d601f19601f82011682018060405250810190610c459190611971565b1015610c635760405162461bcd60e51b815260040161038590611a1c565b610c6d838361149e565b60008381526002602081905260409182902080549101549151637921219560e11b81526060926001600160a01b038086169363f242432a93610cc2936101009092049092169133919089908890600401611a88565b600060405180830381600087803b158015610cdc57600080fd5b505af1158015610cf0573d6000803e3d6000fd5b5050505050505b604051339083907f0cfb1c3841b1ebe2ad43e9d641c358c0d40c4a10fc3c2ee73fd956a2658ed14490600090a35050565b60008181526002602052604090205461010090046001600160a01b03163314610d9f5760405162461bcd60e51b815260206004820152602360248201527f4f6e6c792073656c6c65722063616e20706572666f726d20746869732061637460448201526234b7b760e91b6064820152608401610385565b600081815260026020819052604080832080546001600160a81b03191681556001810180546001600160a01b031990811690915592810184905560038101849055600481018490556005810180548416905560068101849055600781018054841690556008810184905560098101805484169055600a8101849055600b81018054909316909255600c90910182905551339183917f12f32b32b0219966d83751d629b500d75ba2b2d7dda18dcbb71bbb6dcd28d5779190a350565b60008281526002602052604090205460ff16151560011415610eb35760405162461bcd60e51b815260206004820152601260248201527113d999995c9a5b99c81a5cc818db1bdcd95960721b6044820152606401610385565b600082815260026020526040908190206001015490516301ffc9a760e01b81526001600160a01b03909116906301ffc9a790610efa906380ac58cd60e01b906004016117df565b60206040518083038186803b158015610f1257600080fd5b505afa158015610f26573d6000803e3d6000fd5b505050506040513d601f19601f82011682018060405250810190610f4a91906118a5565b1561101057600082815260026020819052604091829020600181015491015491516331a9108f60e11b815260048101929092526001600160a01b03169033908290636352211e9060240160206040518083038186803b158015610fac57600080fd5b505afa158015610fc0573d6000803e3d6000fd5b505050506040513d601f19601f82011682018060405250810190610fe4919061190d565b6001600160a01b03161461100a5760405162461bcd60e51b815260040161038590611b07565b50611196565b600082815260026020526040908190206001015490516301ffc9a760e01b81526001600160a01b03909116906301ffc9a79061105790636cdb3d1360e11b906004016117df565b60206040518083038186803b15801561106f57600080fd5b505afa158015611083573d6000803e3d6000fd5b505050506040513d601f19601f820116820180604052508101906110a791906118a5565b156111965760008281526002602081905260408083206001810154815491909301549151627eeac760e11b81526101009091046001600160a01b039081166004830152602482019290925291169190829062fdd58e9060440160206040518083038186803b15801561111857600080fd5b505afa15801561112c573d6000803e3d6000fd5b505050506040513d601f19601f820116820180604052508101906111509190611971565b118015611178575060008381526002602052604090205461010090046001600160a01b031633145b6111945760405162461bcd60e51b815260040161038590611b07565b505b600082815260026020526040902060038101829055600901546111c590839083906001600160a01b0316611208565b5050505050817f0172b169b47029a14f432b31a97dd89dc96c1c09754ce9d23c79f9f1c0dd878a826040516111fc91815260200190565b60405180910390a25050565b600080546001600160a01b03168152600360205260408120548190819081908190819061123a90899061ffff16611478565b905061124681896119d7565b600080548b82526002602090815260408084206005810180546001600160a01b0319166001600160a01b03958616179055600601869055918b168352600390528120549199509061129c908a9061ffff16611478565b90506112a8818a6119d7565b60008b8152600260205260408082206009810180546001600160a01b0319166001600160a01b038e811691909117909155600a820186905560019091015491516301ffc9a760e01b8152939c509192839291909116906301ffc9a7906113199063152a902d60e11b906004016117df565b60206040518083038186803b15801561133157600080fd5b505afa158015611345573d6000803e3d6000fd5b505050506040513d601f19601f8201168201806040525081019061136991906118a5565b6113755760008061140c565b60008c8152600260208190526040918290206001810154910154915163152a902d60e11b81526004810192909252602482018d90526001600160a01b031690632a55205a90604401604080518083038186803b1580156113d457600080fd5b505afa1580156113e8573d6000803e3d6000fd5b505050506040513d601f19601f8201168201806040525081019061140c91906119ee565b909250905061141b818c6119d7565b60009c8d5260026020526040909c206007810180546001600160a01b0385166001600160a01b03199182161790915560088201839055600b8201805490911633179055600c018c9055929b919a9099509197509095509350505050565b60008061271061148c61ffff8516866119b8565b6114969190611b53565b949350505050565b6000828152600260205260409020600401548111156114ff5760405162461bcd60e51b815260206004820152601960248201527f4f666665722063616e6e6f742062652066756c66696c6c6564000000000000006044820152606401610385565b60008281526002602052604090205460ff161515600114156115585760405162461bcd60e51b815260206004820152601260248201527113d999995c9a5b99c81a5cc818db1bdcd95960721b6044820152606401610385565b6000828152600260205260409020600401546115759082906119d7565b60008381526002602052604090206004018190556115a7576000828152600260205260409020805460ff191660011790555b6000828152600260205260409020600501546001600160a01b03161561162557600082815260026020526040902060058101546006909101546001600160a01b03909116906108fc906115fb9084906119b8565b6040518115909202916000818181858888f19350505050158015611623573d6000803e3d6000fd5b505b6000828152600260205260409020600901546001600160a01b0316156116a35760008281526002602052604090206009810154600a909101546001600160a01b03909116906108fc906116799084906119b8565b6040518115909202916000818181858888f193505050501580156116a1573d6000803e3d6000fd5b505b6000828152600260205260409020600701546001600160a01b03161561172157600082815260026020526040902060078101546008909101546001600160a01b03909116906108fc906116f79084906119b8565b6040518115909202916000818181858888f1935050505015801561171f573d6000803e3d6000fd5b505b6000828152600260205260409020600b01546001600160a01b03161561179f576000828152600260205260409020600b810154600c909101546001600160a01b03909116906108fc906117759084906119b8565b6040518115909202916000818181858888f1935050505015801561179d573d6000803e3d6000fd5b505b5050565b6001600160a01b03811681146117b857600080fd5b50565b6000602082840312156117cd57600080fd5b81356117d8816117a3565b9392505050565b6001600160e01b031991909116815260200190565b600080600080600060a0868803121561180c57600080fd5b8535611817816117a3565b945060208601359350604086013592506060860135611835816117a3565b949793965091946080013592915050565b60006020828403121561185857600080fd5b813561ffff811681146117d857600080fd5b6000806040838503121561187d57600080fd5b50508035926020909101359150565b60006020828403121561189e57600080fd5b5035919050565b6000602082840312156118b757600080fd5b815180151581146117d857600080fd5b60208082526026908201527f4552433732312063616e207472616e73616374206f6e6c79206f6e6520617420604082015265612074696d6560d01b606082015260800190565b60006020828403121561191f57600080fd5b81516117d8816117a3565b60208082526027908201527f4f6e6c7920746f6b656e206f776e6572732063616e20707574207468656d20666040820152666f722073616c6560c81b606082015260800190565b60006020828403121561198357600080fd5b5051919050565b634e487b7160e01b600052601160045260246000fd5b600082198211156119b3576119b361198a565b500190565b60008160001904831182151516156119d2576119d261198a565b500290565b6000828210156119e9576119e961198a565b500390565b60008060408385031215611a0157600080fd5b8251611a0c816117a3565b6020939093015192949293505050565b60208082526046908201527f4f66666572206973206e6f206c6f6e6765722076616c69642c20746f6b656e2060408201527f776173207472616e736665726564206f75747369646520746865206d61726b6560608201526574706c61636560d01b608082015260a00190565b600060018060a01b03808816835260208188168185015286604085015285606085015260a06080850152845191508160a085015260005b82811015611adb5785810182015185820160c001528101611abf565b82811115611aed57600060c084870101525b5050601f01601f19169190910160c0019695505050505050565b6020808252602c908201527f4f6e6c792074686520746f6b656e206f776e65722063616e20706572666f726d60408201526b103a3434b99030b1ba34b7b760a11b606082015260800190565b600082611b7057634e487b7160e01b600052601260045260246000fd5b50049056fea2646970667358221220bfce8d9ef48913cbedadfa4cf8e568d9a6ad591923dfdefef4b2d84fb5417eb864736f6c63430008090033",
  "linkReferences": {},
  "deployedLinkReferences": {}
}