{
  "_format": "hh-sol-artifact-1",
  "contractName": "ERC1155DappifyV1",
  "sourceName": "contracts/ERC1155DappifyV1.sol",
  "abi": [
    {
      "inputs": [
        {
          "internalType": "string",
          "name": "_name",
          "type": "string"
        },
        {
          "internalType": "string",
          "name": "_symbol",
          "type": "string"
        },
        {
          "internalType": "string",
          "name": "uri",
          "type": "string"
        }
      ],
      "stateMutability": "nonpayable",
      "type": "constructor"
    },
    {
      "anonymous": false,
      "inputs": [
        {
          "indexed": true,
          "internalType": "address",
          "name": "account",
          "type": "address"
        },
        {
          "indexed": true,
          "internalType": "address",
          "name": "operator",
          "type": "address"
        },
        {
          "indexed": false,
          "internalType": "bool",
          "name": "approved",
          "type": "bool"
        }
      ],
      "name": "ApprovalForAll",
      "type": "event"
    },
    {
      "anonymous": false,
      "inputs": [
        {
          "indexed": true,
          "internalType": "address",
          "name": "previousOwner",
          "type": "address"
        },
        {
          "indexed": true,
          "internalType": "address",
          "name": "newOwner",
          "type": "address"
        }
      ],
      "name": "OwnershipTransferred",
      "type": "event"
    },
    {
      "anonymous": false,
      "inputs": [
        {
          "indexed": true,
          "internalType": "address",
          "name": "operator",
          "type": "address"
        },
        {
          "indexed": true,
          "internalType": "address",
          "name": "from",
          "type": "address"
        },
        {
          "indexed": true,
          "internalType": "address",
          "name": "to",
          "type": "address"
        },
        {
          "indexed": false,
          "internalType": "uint256[]",
          "name": "ids",
          "type": "uint256[]"
        },
        {
          "indexed": false,
          "internalType": "uint256[]",
          "name": "values",
          "type": "uint256[]"
        }
      ],
      "name": "TransferBatch",
      "type": "event"
    },
    {
      "anonymous": false,
      "inputs": [
        {
          "indexed": true,
          "internalType": "address",
          "name": "operator",
          "type": "address"
        },
        {
          "indexed": true,
          "internalType": "address",
          "name": "from",
          "type": "address"
        },
        {
          "indexed": true,
          "internalType": "address",
          "name": "to",
          "type": "address"
        },
        {
          "indexed": false,
          "internalType": "uint256",
          "name": "id",
          "type": "uint256"
        },
        {
          "indexed": false,
          "internalType": "uint256",
          "name": "value",
          "type": "uint256"
        }
      ],
      "name": "TransferSingle",
      "type": "event"
    },
    {
      "anonymous": false,
      "inputs": [
        {
          "indexed": false,
          "internalType": "string",
          "name": "value",
          "type": "string"
        },
        {
          "indexed": true,
          "internalType": "uint256",
          "name": "id",
          "type": "uint256"
        }
      ],
      "name": "URI",
      "type": "event"
    },
    {
      "inputs": [
        {
          "internalType": "address",
          "name": "account",
          "type": "address"
        },
        {
          "internalType": "uint256",
          "name": "id",
          "type": "uint256"
        }
      ],
      "name": "balanceOf",
      "outputs": [
        {
          "internalType": "uint256",
          "name": "",
          "type": "uint256"
        }
      ],
      "stateMutability": "view",
      "type": "function"
    },
    {
      "inputs": [
        {
          "internalType": "address[]",
          "name": "accounts",
          "type": "address[]"
        },
        {
          "internalType": "uint256[]",
          "name": "ids",
          "type": "uint256[]"
        }
      ],
      "name": "balanceOfBatch",
      "outputs": [
        {
          "internalType": "uint256[]",
          "name": "",
          "type": "uint256[]"
        }
      ],
      "stateMutability": "view",
      "type": "function"
    },
    {
      "inputs": [
        {
          "internalType": "address",
          "name": "account",
          "type": "address"
        },
        {
          "internalType": "address",
          "name": "operator",
          "type": "address"
        }
      ],
      "name": "isApprovedForAll",
      "outputs": [
        {
          "internalType": "bool",
          "name": "",
          "type": "bool"
        }
      ],
      "stateMutability": "view",
      "type": "function"
    },
    {
      "inputs": [
        {
          "internalType": "address",
          "name": "_receiver",
          "type": "address"
        },
        {
          "internalType": "address",
          "name": "_beneficiary",
          "type": "address"
        },
        {
          "internalType": "uint96",
          "name": "_feeNumerator",
          "type": "uint96"
        },
        {
          "internalType": "string",
          "name": "_tokenURI",
          "type": "string"
        },
        {
          "internalType": "uint256",
          "name": "amount",
          "type": "uint256"
        }
      ],
      "name": "mint",
      "outputs": [],
      "stateMutability": "nonpayable",
      "type": "function"
    },
    {
      "inputs": [],
      "name": "name",
      "outputs": [
        {
          "internalType": "string",
          "name": "",
          "type": "string"
        }
      ],
      "stateMutability": "view",
      "type": "function"
    },
    {
      "inputs": [],
      "name": "owner",
      "outputs": [
        {
          "internalType": "address",
          "name": "",
          "type": "address"
        }
      ],
      "stateMutability": "view",
      "type": "function"
    },
    {
      "inputs": [],
      "name": "renounceOwnership",
      "outputs": [],
      "stateMutability": "nonpayable",
      "type": "function"
    },
    {
      "inputs": [
        {
          "internalType": "uint256",
          "name": "_tokenId",
          "type": "uint256"
        },
        {
          "internalType": "uint256",
          "name": "_salePrice",
          "type": "uint256"
        }
      ],
      "name": "royaltyInfo",
      "outputs": [
        {
          "internalType": "address",
          "name": "",
          "type": "address"
        },
        {
          "internalType": "uint256",
          "name": "",
          "type": "uint256"
        }
      ],
      "stateMutability": "view",
      "type": "function"
    },
    {
      "inputs": [
        {
          "internalType": "address",
          "name": "from",
          "type": "address"
        },
        {
          "internalType": "address",
          "name": "to",
          "type": "address"
        },
        {
          "internalType": "uint256[]",
          "name": "ids",
          "type": "uint256[]"
        },
        {
          "internalType": "uint256[]",
          "name": "amounts",
          "type": "uint256[]"
        },
        {
          "internalType": "bytes",
          "name": "data",
          "type": "bytes"
        }
      ],
      "name": "safeBatchTransferFrom",
      "outputs": [],
      "stateMutability": "nonpayable",
      "type": "function"
    },
    {
      "inputs": [
        {
          "internalType": "address",
          "name": "from",
          "type": "address"
        },
        {
          "internalType": "address",
          "name": "to",
          "type": "address"
        },
        {
          "internalType": "uint256",
          "name": "id",
          "type": "uint256"
        },
        {
          "internalType": "uint256",
          "name": "amount",
          "type": "uint256"
        },
        {
          "internalType": "bytes",
          "name": "data",
          "type": "bytes"
        }
      ],
      "name": "safeTransferFrom",
      "outputs": [],
      "stateMutability": "nonpayable",
      "type": "function"
    },
    {
      "inputs": [
        {
          "internalType": "address",
          "name": "operator",
          "type": "address"
        },
        {
          "internalType": "bool",
          "name": "approved",
          "type": "bool"
        }
      ],
      "name": "setApprovalForAll",
      "outputs": [],
      "stateMutability": "nonpayable",
      "type": "function"
    },
    {
      "inputs": [
        {
          "internalType": "address",
          "name": "_receiver",
          "type": "address"
        },
        {
          "internalType": "uint96",
          "name": "_feeNumerator",
          "type": "uint96"
        }
      ],
      "name": "setDefaultRoyalty",
      "outputs": [],
      "stateMutability": "nonpayable",
      "type": "function"
    },
    {
      "inputs": [
        {
          "internalType": "bytes4",
          "name": "interfaceId",
          "type": "bytes4"
        }
      ],
      "name": "supportsInterface",
      "outputs": [
        {
          "internalType": "bool",
          "name": "",
          "type": "bool"
        }
      ],
      "stateMutability": "view",
      "type": "function"
    },
    {
      "inputs": [],
      "name": "symbol",
      "outputs": [
        {
          "internalType": "string",
          "name": "",
          "type": "string"
        }
      ],
      "stateMutability": "view",
      "type": "function"
    },
    {
      "inputs": [
        {
          "internalType": "address",
          "name": "newOwner",
          "type": "address"
        }
      ],
      "name": "transferOwnership",
      "outputs": [],
      "stateMutability": "nonpayable",
      "type": "function"
    },
    {
      "inputs": [
        {
          "internalType": "uint256",
          "name": "tokenId",
          "type": "uint256"
        }
      ],
      "name": "uri",
      "outputs": [
        {
          "internalType": "string",
          "name": "",
          "type": "string"
        }
      ],
      "stateMutability": "view",
      "type": "function"
    }
  ],
  "bytecode": "0x60a06040819052600060808190526200001b9160059162000104565b503480156200002957600080fd5b5060405162001fca38038062001fca8339810160408190526200004c9162000277565b80620000588162000099565b506200006433620000b2565b82516200007990600990602086019062000104565b5081516200008f90600a90602085019062000104565b5050505062000345565b8051620000ae90600490602084019062000104565b5050565b600780546001600160a01b038381166001600160a01b0319831681179093556040519116919082907f8be0079c531659141344cd1fd0a4f28419497f9722a3daafe3b4186f6b6457e090600090a35050565b828054620001129062000308565b90600052602060002090601f01602090048101928262000136576000855562000181565b82601f106200015157805160ff191683800117855562000181565b8280016001018555821562000181579182015b828111156200018157825182559160200191906001019062000164565b506200018f92915062000193565b5090565b5b808211156200018f576000815560010162000194565b634e487b7160e01b600052604160045260246000fd5b600082601f830112620001d257600080fd5b81516001600160401b0380821115620001ef57620001ef620001aa565b604051601f8301601f19908116603f011681019082821181831017156200021a576200021a620001aa565b816040528381526020925086838588010111156200023757600080fd5b600091505b838210156200025b57858201830151818301840152908201906200023c565b838211156200026d5760008385830101525b9695505050505050565b6000806000606084860312156200028d57600080fd5b83516001600160401b0380821115620002a557600080fd5b620002b387838801620001c0565b94506020860151915080821115620002ca57600080fd5b620002d887838801620001c0565b93506040860151915080821115620002ef57600080fd5b50620002fe86828701620001c0565b9150509250925092565b600181811c908216806200031d57607f821691505b602082108114156200033f57634e487b7160e01b600052602260045260246000fd5b50919050565b611c7580620003556000396000f3fe608060405234801561001057600080fd5b50600436106100ff5760003560e01c80634e1273f411610097578063a22cb46511610066578063a22cb4651461022d578063e985e9c514610240578063f242432a1461027c578063f2fde38b1461028f57600080fd5b80634e1273f4146101e2578063715018a6146102025780638da5cb5b1461020a57806395d89b411461022557600080fd5b80630e89341c116100d35780630e89341c146101775780632a55205a1461018a5780632eb2c2d6146101bc578063312bf827146101cf57600080fd5b8062fdd58e1461010457806301ffc9a71461012a57806304634d8d1461014d57806306fdde0314610162575b600080fd5b610117610112366004611326565b6102a2565b6040519081526020015b60405180910390f35b61013d610138366004611366565b61033b565b6040519015158152602001610121565b61016061015b3660046113a1565b61034c565b005b61016a61035a565b6040516101219190611421565b61016a610185366004611434565b6103e8565b61019d61019836600461144d565b61048a565b604080516001600160a01b039093168352602083019190915201610121565b6101606101ca3660046115c5565b610536565b6101606101dd36600461166f565b6105cd565b6101f56101f03660046116fa565b610613565b6040516101219190611800565b61016061073d565b6007546040516001600160a01b039091168152602001610121565b61016a6107a3565b61016061023b366004611813565b6107b0565b61013d61024e36600461184f565b6001600160a01b03918216600090815260036020908152604080832093909416825291909152205460ff1690565b61016061028a366004611879565b6107bb565b61016061029d3660046118de565b610842565b60006001600160a01b0383166103135760405162461bcd60e51b815260206004820152602b60248201527f455243313135353a2062616c616e636520717565727920666f7220746865207a60448201526a65726f206164647265737360a81b60648201526084015b60405180910390fd5b5060009081526002602090815260408083206001600160a01b03949094168352929052205490565b60006103468261090d565b92915050565b610356828261094d565b5050565b60098054610367906118f9565b80601f0160208091040260200160405190810160405280929190818152602001828054610393906118f9565b80156103e05780601f106103b5576101008083540402835291602001916103e0565b820191906000526020600020905b8154815290600101906020018083116103c357829003601f168201915b505050505081565b6000818152600860205260409020805460609190610405906118f9565b80601f0160208091040260200160405190810160405280929190818152602001828054610431906118f9565b801561047e5780601f106104535761010080835404028352916020019161047e565b820191906000526020600020905b81548152906001019060200180831161046157829003601f168201915b50505050509050919050565b60008281526001602090815260408083208151808301909252546001600160a01b038116808352600160a01b9091046001600160601b03169282019290925282916104ff5750604080518082019091526000546001600160a01b0381168252600160a01b90046001600160601b031660208201525b60208101516000906127109061051e906001600160601b03168761194a565b6105289190611969565b915196919550909350505050565b6001600160a01b0385163314806105525750610552853361024e565b6105b95760405162461bcd60e51b815260206004820152603260248201527f455243313135353a207472616e736665722063616c6c6572206973206e6f74206044820152711bdddb995c881b9bdc88185c1c1c9bdd995960721b606482015260840161030a565b6105c68585858585610a4a565b5050505050565b60606105dd600b80546001019055565b60006105e8600b5490565b90506105f687828585610c2a565b610600868661094d565b61060a8185610d37565b50505050505050565b606081518351146106785760405162461bcd60e51b815260206004820152602960248201527f455243313135353a206163636f756e747320616e6420696473206c656e677468604482015268040dad2e6dac2e8c6d60bb1b606482015260840161030a565b6000835167ffffffffffffffff8111156106945761069461146f565b6040519080825280602002602001820160405280156106bd578160200160208202803683370190505b50905060005b8451811015610735576107088582815181106106e1576106e161198b565b60200260200101518583815181106106fb576106fb61198b565b60200260200101516102a2565b82828151811061071a5761071a61198b565b602090810291909101015261072e816119a1565b90506106c3565b509392505050565b6007546001600160a01b031633146107975760405162461bcd60e51b815260206004820181905260248201527f4f776e61626c653a2063616c6c6572206973206e6f7420746865206f776e6572604482015260640161030a565b6107a16000610d5b565b565b600a8054610367906118f9565b610356338383610dad565b6001600160a01b0385163314806107d757506107d7853361024e565b6108355760405162461bcd60e51b815260206004820152602960248201527f455243313135353a2063616c6c6572206973206e6f74206f776e6572206e6f7260448201526808185c1c1c9bdd995960ba1b606482015260840161030a565b6105c68585858585610e8e565b6007546001600160a01b0316331461089c5760405162461bcd60e51b815260206004820181905260248201527f4f776e61626c653a2063616c6c6572206973206e6f7420746865206f776e6572604482015260640161030a565b6001600160a01b0381166109015760405162461bcd60e51b815260206004820152602660248201527f4f776e61626c653a206e6577206f776e657220697320746865207a65726f206160448201526564647265737360d01b606482015260840161030a565b61090a81610d5b565b50565b60006001600160e01b03198216636cdb3d1360e11b148061093e57506001600160e01b031982166303a24d0760e21b145b80610346575061034682610fbc565b6127106001600160601b03821611156109bb5760405162461bcd60e51b815260206004820152602a60248201527f455243323938313a20726f79616c7479206665652077696c6c206578636565646044820152692073616c65507269636560b01b606482015260840161030a565b6001600160a01b038216610a115760405162461bcd60e51b815260206004820152601960248201527f455243323938313a20696e76616c696420726563656976657200000000000000604482015260640161030a565b604080518082019091526001600160a01b039092168083526001600160601b039091166020909201829052600160a01b90910217600055565b8151835114610aac5760405162461bcd60e51b815260206004820152602860248201527f455243313135353a2069647320616e6420616d6f756e7473206c656e677468206044820152670dad2e6dac2e8c6d60c31b606482015260840161030a565b6001600160a01b038416610ad25760405162461bcd60e51b815260040161030a906119bc565b3360005b8451811015610bbc576000858281518110610af357610af361198b565b602002602001015190506000858381518110610b1157610b1161198b565b60209081029190910181015160008481526002835260408082206001600160a01b038e168352909352919091205490915081811015610b625760405162461bcd60e51b815260040161030a90611a01565b60008381526002602090815260408083206001600160a01b038e8116855292528083208585039055908b16825281208054849290610ba1908490611a4b565b9250508190555050505080610bb5906119a1565b9050610ad6565b50846001600160a01b0316866001600160a01b0316826001600160a01b03167f4a39dc06d4c0dbc64b70af90fd698a233a518aa5d07e595d983b8c0526c8f7fb8787604051610c0c929190611a63565b60405180910390a4610c22818787878787610ff1565b505050505050565b6001600160a01b038416610c8a5760405162461bcd60e51b815260206004820152602160248201527f455243313135353a206d696e7420746f20746865207a65726f206164647265736044820152607360f81b606482015260840161030a565b336000610c968561115c565b90506000610ca38561115c565b905060008681526002602090815260408083206001600160a01b038b16845290915281208054879290610cd7908490611a4b565b909155505060408051878152602081018790526001600160a01b03808a1692600092918716917fc3d58168c5ae7397731d063d5bbf3d657854427343f4c083240f7aacaa2d0f62910160405180910390a461060a836000898989896111a7565b60008281526008602090815260409091208251610d5692840190611271565b505050565b600780546001600160a01b038381166001600160a01b0319831681179093556040519116919082907f8be0079c531659141344cd1fd0a4f28419497f9722a3daafe3b4186f6b6457e090600090a35050565b816001600160a01b0316836001600160a01b03161415610e215760405162461bcd60e51b815260206004820152602960248201527f455243313135353a2073657474696e6720617070726f76616c20737461747573604482015268103337b91039b2b63360b91b606482015260840161030a565b6001600160a01b03838116600081815260036020908152604080832094871680845294825291829020805460ff191686151590811790915591519182527f17307eab39ab6107e8899845ad3d59bd9653f200f220920489ca2b5937696c31910160405180910390a3505050565b6001600160a01b038416610eb45760405162461bcd60e51b815260040161030a906119bc565b336000610ec08561115c565b90506000610ecd8561115c565b905060008681526002602090815260408083206001600160a01b038c16845290915290205485811015610f125760405162461bcd60e51b815260040161030a90611a01565b60008781526002602090815260408083206001600160a01b038d8116855292528083208985039055908a16825281208054889290610f51908490611a4b565b909155505060408051888152602081018890526001600160a01b03808b16928c821692918816917fc3d58168c5ae7397731d063d5bbf3d657854427343f4c083240f7aacaa2d0f62910160405180910390a4610fb1848a8a8a8a8a6111a7565b505050505050505050565b60006001600160e01b0319821663152a902d60e11b148061034657506301ffc9a760e01b6001600160e01b0319831614610346565b6001600160a01b0384163b15610c225760405163bc197c8160e01b81526001600160a01b0385169063bc197c81906110359089908990889088908890600401611a91565b602060405180830381600087803b15801561104f57600080fd5b505af192505050801561107f575060408051601f3d908101601f1916820190925261107c91810190611aef565b60015b61112c5761108b611b0c565b806308c379a014156110c557506110a0611b28565b806110ab57506110c7565b8060405162461bcd60e51b815260040161030a9190611421565b505b60405162461bcd60e51b815260206004820152603460248201527f455243313135353a207472616e7366657220746f206e6f6e20455243313135356044820152732932b1b2b4bb32b91034b6b83632b6b2b73a32b960611b606482015260840161030a565b6001600160e01b0319811663bc197c8160e01b1461060a5760405162461bcd60e51b815260040161030a90611bb2565b604080516001808252818301909252606091600091906020808301908036833701905050905082816000815181106111965761119661198b565b602090810291909101015292915050565b6001600160a01b0384163b15610c225760405163f23a6e6160e01b81526001600160a01b0385169063f23a6e61906111eb9089908990889088908890600401611bfa565b602060405180830381600087803b15801561120557600080fd5b505af1925050508015611235575060408051601f3d908101601f1916820190925261123291810190611aef565b60015b6112415761108b611b0c565b6001600160e01b0319811663f23a6e6160e01b1461060a5760405162461bcd60e51b815260040161030a90611bb2565b82805461127d906118f9565b90600052602060002090601f01602090048101928261129f57600085556112e5565b82601f106112b857805160ff19168380011785556112e5565b828001600101855582156112e5579182015b828111156112e55782518255916020019190600101906112ca565b506112f19291506112f5565b5090565b5b808211156112f157600081556001016112f6565b80356001600160a01b038116811461132157600080fd5b919050565b6000806040838503121561133957600080fd5b6113428361130a565b946020939093013593505050565b6001600160e01b03198116811461090a57600080fd5b60006020828403121561137857600080fd5b813561138381611350565b9392505050565b80356001600160601b038116811461132157600080fd5b600080604083850312156113b457600080fd5b6113bd8361130a565b91506113cb6020840161138a565b90509250929050565b6000815180845260005b818110156113fa576020818501810151868301820152016113de565b8181111561140c576000602083870101525b50601f01601f19169290920160200192915050565b60208152600061138360208301846113d4565b60006020828403121561144657600080fd5b5035919050565b6000806040838503121561146057600080fd5b50508035926020909101359150565b634e487b7160e01b600052604160045260246000fd5b601f8201601f1916810167ffffffffffffffff811182821017156114ab576114ab61146f565b6040525050565b600067ffffffffffffffff8211156114cc576114cc61146f565b5060051b60200190565b600082601f8301126114e757600080fd5b813560206114f4826114b2565b6040516115018282611485565b83815260059390931b850182019282810191508684111561152157600080fd5b8286015b8481101561153c5780358352918301918301611525565b509695505050505050565b600067ffffffffffffffff8311156115615761156161146f565b604051611578601f8501601f191660200182611485565b80915083815284848401111561158d57600080fd5b83836020830137600060208583010152509392505050565b600082601f8301126115b657600080fd5b61138383833560208501611547565b600080600080600060a086880312156115dd57600080fd5b6115e68661130a565b94506115f46020870161130a565b9350604086013567ffffffffffffffff8082111561161157600080fd5b61161d89838a016114d6565b9450606088013591508082111561163357600080fd5b61163f89838a016114d6565b9350608088013591508082111561165557600080fd5b50611662888289016115a5565b9150509295509295909350565b600080600080600060a0868803121561168757600080fd5b6116908661130a565b945061169e6020870161130a565b93506116ac6040870161138a565b9250606086013567ffffffffffffffff8111156116c857600080fd5b8601601f810188136116d957600080fd5b6116e888823560208401611547565b95989497509295608001359392505050565b6000806040838503121561170d57600080fd5b823567ffffffffffffffff8082111561172557600080fd5b818501915085601f83011261173957600080fd5b81356020611746826114b2565b6040516117538282611485565b83815260059390931b850182019282810191508984111561177357600080fd5b948201945b83861015611798576117898661130a565b82529482019490820190611778565b965050860135925050808211156117ae57600080fd5b506117bb858286016114d6565b9150509250929050565b600081518084526020808501945080840160005b838110156117f5578151875295820195908201906001016117d9565b509495945050505050565b60208152600061138360208301846117c5565b6000806040838503121561182657600080fd5b61182f8361130a565b91506020830135801515811461184457600080fd5b809150509250929050565b6000806040838503121561186257600080fd5b61186b8361130a565b91506113cb6020840161130a565b600080600080600060a0868803121561189157600080fd5b61189a8661130a565b94506118a86020870161130a565b93506040860135925060608601359150608086013567ffffffffffffffff8111156118d257600080fd5b611662888289016115a5565b6000602082840312156118f057600080fd5b6113838261130a565b600181811c9082168061190d57607f821691505b6020821081141561192e57634e487b7160e01b600052602260045260246000fd5b50919050565b634e487b7160e01b600052601160045260246000fd5b600081600019048311821515161561196457611964611934565b500290565b60008261198657634e487b7160e01b600052601260045260246000fd5b500490565b634e487b7160e01b600052603260045260246000fd5b60006000198214156119b5576119b5611934565b5060010190565b60208082526025908201527f455243313135353a207472616e7366657220746f20746865207a65726f206164604082015264647265737360d81b606082015260800190565b6020808252602a908201527f455243313135353a20696e73756666696369656e742062616c616e636520666f60408201526939103a3930b739b332b960b11b606082015260800190565b60008219821115611a5e57611a5e611934565b500190565b604081526000611a7660408301856117c5565b8281036020840152611a8881856117c5565b95945050505050565b6001600160a01b0386811682528516602082015260a060408201819052600090611abd908301866117c5565b8281036060840152611acf81866117c5565b90508281036080840152611ae381856113d4565b98975050505050505050565b600060208284031215611b0157600080fd5b815161138381611350565b600060033d1115611b255760046000803e5060005160e01c5b90565b600060443d1015611b365790565b6040516003193d81016004833e81513d67ffffffffffffffff8160248401118184111715611b6657505050505090565b8285019150815181811115611b7e5750505050505090565b843d8701016020828501011115611b985750505050505090565b611ba760208286010187611485565b509095945050505050565b60208082526028908201527f455243313135353a204552433131353552656365697665722072656a656374656040820152676420746f6b656e7360c01b606082015260800190565b6001600160a01b03868116825285166020820152604081018490526060810183905260a060808201819052600090611c34908301846113d4565b97965050505050505056fea2646970667358221220e78178d0d5035c5b8bb12ade6ebd75a75c1c21debccc55f41c941b6166a6632f64736f6c63430008090033",
  "linkReferences": {},
  "deployedLinkReferences": {}
}