{
  "_format": "hh-sol-artifact-1",
  "contractName": "ERC1155DappifyV1",
  "sourceName": "contracts/ERC1155DappifyV1.sol",
  "abi": [
    {
      "inputs": [],
      "stateMutability": "nonpayable",
      "type": "constructor"
    },
    {
      "anonymous": false,
      "inputs": [
        {
          "indexed": true,
          "internalType": "address",
          "name": "account",
          "type": "address"
        },
        {
          "indexed": true,
          "internalType": "address",
          "name": "operator",
          "type": "address"
        },
        {
          "indexed": false,
          "internalType": "bool",
          "name": "approved",
          "type": "bool"
        }
      ],
      "name": "ApprovalForAll",
      "type": "event"
    },
    {
      "anonymous": false,
      "inputs": [
        {
          "indexed": true,
          "internalType": "address",
          "name": "previousOwner",
          "type": "address"
        },
        {
          "indexed": true,
          "internalType": "address",
          "name": "newOwner",
          "type": "address"
        }
      ],
      "name": "OwnershipTransferred",
      "type": "event"
    },
    {
      "anonymous": false,
      "inputs": [
        {
          "indexed": true,
          "internalType": "address",
          "name": "operator",
          "type": "address"
        },
        {
          "indexed": true,
          "internalType": "address",
          "name": "from",
          "type": "address"
        },
        {
          "indexed": true,
          "internalType": "address",
          "name": "to",
          "type": "address"
        },
        {
          "indexed": false,
          "internalType": "uint256[]",
          "name": "ids",
          "type": "uint256[]"
        },
        {
          "indexed": false,
          "internalType": "uint256[]",
          "name": "values",
          "type": "uint256[]"
        }
      ],
      "name": "TransferBatch",
      "type": "event"
    },
    {
      "anonymous": false,
      "inputs": [
        {
          "indexed": true,
          "internalType": "address",
          "name": "operator",
          "type": "address"
        },
        {
          "indexed": true,
          "internalType": "address",
          "name": "from",
          "type": "address"
        },
        {
          "indexed": true,
          "internalType": "address",
          "name": "to",
          "type": "address"
        },
        {
          "indexed": false,
          "internalType": "uint256",
          "name": "id",
          "type": "uint256"
        },
        {
          "indexed": false,
          "internalType": "uint256",
          "name": "value",
          "type": "uint256"
        }
      ],
      "name": "TransferSingle",
      "type": "event"
    },
    {
      "anonymous": false,
      "inputs": [
        {
          "indexed": false,
          "internalType": "string",
          "name": "value",
          "type": "string"
        },
        {
          "indexed": true,
          "internalType": "uint256",
          "name": "id",
          "type": "uint256"
        }
      ],
      "name": "URI",
      "type": "event"
    },
    {
      "inputs": [
        {
          "internalType": "address",
          "name": "account",
          "type": "address"
        },
        {
          "internalType": "uint256",
          "name": "id",
          "type": "uint256"
        }
      ],
      "name": "balanceOf",
      "outputs": [
        {
          "internalType": "uint256",
          "name": "",
          "type": "uint256"
        }
      ],
      "stateMutability": "view",
      "type": "function"
    },
    {
      "inputs": [
        {
          "internalType": "address[]",
          "name": "accounts",
          "type": "address[]"
        },
        {
          "internalType": "uint256[]",
          "name": "ids",
          "type": "uint256[]"
        }
      ],
      "name": "balanceOfBatch",
      "outputs": [
        {
          "internalType": "uint256[]",
          "name": "",
          "type": "uint256[]"
        }
      ],
      "stateMutability": "view",
      "type": "function"
    },
    {
      "inputs": [
        {
          "internalType": "address",
          "name": "account",
          "type": "address"
        },
        {
          "internalType": "address",
          "name": "operator",
          "type": "address"
        }
      ],
      "name": "isApprovedForAll",
      "outputs": [
        {
          "internalType": "bool",
          "name": "",
          "type": "bool"
        }
      ],
      "stateMutability": "view",
      "type": "function"
    },
    {
      "inputs": [
        {
          "internalType": "address",
          "name": "_receiver",
          "type": "address"
        },
        {
          "internalType": "address",
          "name": "_beneficiary",
          "type": "address"
        },
        {
          "internalType": "uint96",
          "name": "_feeNumerator",
          "type": "uint96"
        },
        {
          "internalType": "string",
          "name": "_tokenURI",
          "type": "string"
        },
        {
          "internalType": "uint256",
          "name": "amount",
          "type": "uint256"
        }
      ],
      "name": "mint",
      "outputs": [],
      "stateMutability": "nonpayable",
      "type": "function"
    },
    {
      "inputs": [],
      "name": "owner",
      "outputs": [
        {
          "internalType": "address",
          "name": "",
          "type": "address"
        }
      ],
      "stateMutability": "view",
      "type": "function"
    },
    {
      "inputs": [],
      "name": "renounceOwnership",
      "outputs": [],
      "stateMutability": "nonpayable",
      "type": "function"
    },
    {
      "inputs": [
        {
          "internalType": "uint256",
          "name": "_tokenId",
          "type": "uint256"
        },
        {
          "internalType": "uint256",
          "name": "_salePrice",
          "type": "uint256"
        }
      ],
      "name": "royaltyInfo",
      "outputs": [
        {
          "internalType": "address",
          "name": "",
          "type": "address"
        },
        {
          "internalType": "uint256",
          "name": "",
          "type": "uint256"
        }
      ],
      "stateMutability": "view",
      "type": "function"
    },
    {
      "inputs": [
        {
          "internalType": "address",
          "name": "from",
          "type": "address"
        },
        {
          "internalType": "address",
          "name": "to",
          "type": "address"
        },
        {
          "internalType": "uint256[]",
          "name": "ids",
          "type": "uint256[]"
        },
        {
          "internalType": "uint256[]",
          "name": "amounts",
          "type": "uint256[]"
        },
        {
          "internalType": "bytes",
          "name": "data",
          "type": "bytes"
        }
      ],
      "name": "safeBatchTransferFrom",
      "outputs": [],
      "stateMutability": "nonpayable",
      "type": "function"
    },
    {
      "inputs": [
        {
          "internalType": "address",
          "name": "from",
          "type": "address"
        },
        {
          "internalType": "address",
          "name": "to",
          "type": "address"
        },
        {
          "internalType": "uint256",
          "name": "id",
          "type": "uint256"
        },
        {
          "internalType": "uint256",
          "name": "amount",
          "type": "uint256"
        },
        {
          "internalType": "bytes",
          "name": "data",
          "type": "bytes"
        }
      ],
      "name": "safeTransferFrom",
      "outputs": [],
      "stateMutability": "nonpayable",
      "type": "function"
    },
    {
      "inputs": [
        {
          "internalType": "address",
          "name": "operator",
          "type": "address"
        },
        {
          "internalType": "bool",
          "name": "approved",
          "type": "bool"
        }
      ],
      "name": "setApprovalForAll",
      "outputs": [],
      "stateMutability": "nonpayable",
      "type": "function"
    },
    {
      "inputs": [
        {
          "internalType": "address",
          "name": "_receiver",
          "type": "address"
        },
        {
          "internalType": "uint96",
          "name": "_feeNumerator",
          "type": "uint96"
        }
      ],
      "name": "setDefaultRoyalty",
      "outputs": [],
      "stateMutability": "nonpayable",
      "type": "function"
    },
    {
      "inputs": [
        {
          "internalType": "bytes4",
          "name": "interfaceId",
          "type": "bytes4"
        }
      ],
      "name": "supportsInterface",
      "outputs": [
        {
          "internalType": "bool",
          "name": "",
          "type": "bool"
        }
      ],
      "stateMutability": "view",
      "type": "function"
    },
    {
      "inputs": [
        {
          "internalType": "address",
          "name": "newOwner",
          "type": "address"
        }
      ],
      "name": "transferOwnership",
      "outputs": [],
      "stateMutability": "nonpayable",
      "type": "function"
    },
    {
      "inputs": [
        {
          "internalType": "uint256",
          "name": "tokenId",
          "type": "uint256"
        }
      ],
      "name": "uri",
      "outputs": [
        {
          "internalType": "string",
          "name": "",
          "type": "string"
        }
      ],
      "stateMutability": "view",
      "type": "function"
    }
  ],
  "bytecode": "0x60a06040819052600060808190526200001b91600591620000d3565b503480156200002957600080fd5b5060408051808201909152600a81526911185c1c1a599e53919560b21b6020820152620000568162000068565b50620000623362000081565b620001b6565b80516200007d906004906020840190620000d3565b5050565b600780546001600160a01b038381166001600160a01b0319831681179093556040519116919082907f8be0079c531659141344cd1fd0a4f28419497f9722a3daafe3b4186f6b6457e090600090a35050565b828054620000e19062000179565b90600052602060002090601f01602090048101928262000105576000855562000150565b82601f106200012057805160ff191683800117855562000150565b8280016001018555821562000150579182015b828111156200015057825182559160200191906001019062000133565b506200015e92915062000162565b5090565b5b808211156200015e576000815560010162000163565b600181811c908216806200018e57607f821691505b60208210811415620001b057634e487b7160e01b600052602260045260246000fd5b50919050565b611bb480620001c66000396000f3fe608060405234801561001057600080fd5b50600436106100e95760003560e01c80634e1273f41161008c578063a22cb46511610066578063a22cb46514610207578063e985e9c51461021a578063f242432a14610256578063f2fde38b1461026957600080fd5b80634e1273f4146101c4578063715018a6146101e45780638da5cb5b146101ec57600080fd5b80630e89341c116100c85780630e89341c1461014c5780632a55205a1461016c5780632eb2c2d61461019e578063312bf827146101b157600080fd5b8062fdd58e146100ee57806301ffc9a71461011457806304634d8d14610137575b600080fd5b6101016100fc366004611265565b61027c565b6040519081526020015b60405180910390f35b6101276101223660046112a5565b610315565b604051901515815260200161010b565b61014a6101453660046112e0565b610326565b005b61015f61015a366004611313565b610334565b60405161010b9190611379565b61017f61017a36600461138c565b6103d6565b604080516001600160a01b03909316835260208301919091520161010b565b61014a6101ac366004611504565b610482565b61014a6101bf3660046115ae565b610519565b6101d76101d2366004611639565b61055f565b60405161010b919061173f565b61014a610689565b6007546040516001600160a01b03909116815260200161010b565b61014a610215366004611752565b6106ef565b61012761022836600461178e565b6001600160a01b03918216600090815260036020908152604080832093909416825291909152205460ff1690565b61014a6102643660046117b8565b6106fa565b61014a61027736600461181d565b610781565b60006001600160a01b0383166102ed5760405162461bcd60e51b815260206004820152602b60248201527f455243313135353a2062616c616e636520717565727920666f7220746865207a60448201526a65726f206164647265737360a81b60648201526084015b60405180910390fd5b5060009081526002602090815260408083206001600160a01b03949094168352929052205490565b60006103208261084c565b92915050565b610330828261088c565b5050565b600081815260086020526040902080546060919061035190611838565b80601f016020809104026020016040519081016040528092919081815260200182805461037d90611838565b80156103ca5780601f1061039f576101008083540402835291602001916103ca565b820191906000526020600020905b8154815290600101906020018083116103ad57829003601f168201915b50505050509050919050565b60008281526001602090815260408083208151808301909252546001600160a01b038116808352600160a01b9091046001600160601b031692820192909252829161044b5750604080518082019091526000546001600160a01b0381168252600160a01b90046001600160601b031660208201525b60208101516000906127109061046a906001600160601b031687611889565b61047491906118a8565b915196919550909350505050565b6001600160a01b03851633148061049e575061049e8533610228565b6105055760405162461bcd60e51b815260206004820152603260248201527f455243313135353a207472616e736665722063616c6c6572206973206e6f74206044820152711bdddb995c881b9bdc88185c1c1c9bdd995960721b60648201526084016102e4565b6105128585858585610989565b5050505050565b6060610529600980546001019055565b600061053460095490565b905061054287828585610b69565b61054c868661088c565b6105568185610c76565b50505050505050565b606081518351146105c45760405162461bcd60e51b815260206004820152602960248201527f455243313135353a206163636f756e747320616e6420696473206c656e677468604482015268040dad2e6dac2e8c6d60bb1b60648201526084016102e4565b6000835167ffffffffffffffff8111156105e0576105e06113ae565b604051908082528060200260200182016040528015610609578160200160208202803683370190505b50905060005b84518110156106815761065485828151811061062d5761062d6118ca565b6020026020010151858381518110610647576106476118ca565b602002602001015161027c565b828281518110610666576106666118ca565b602090810291909101015261067a816118e0565b905061060f565b509392505050565b6007546001600160a01b031633146106e35760405162461bcd60e51b815260206004820181905260248201527f4f776e61626c653a2063616c6c6572206973206e6f7420746865206f776e657260448201526064016102e4565b6106ed6000610c9a565b565b610330338383610cec565b6001600160a01b03851633148061071657506107168533610228565b6107745760405162461bcd60e51b815260206004820152602960248201527f455243313135353a2063616c6c6572206973206e6f74206f776e6572206e6f7260448201526808185c1c1c9bdd995960ba1b60648201526084016102e4565b6105128585858585610dcd565b6007546001600160a01b031633146107db5760405162461bcd60e51b815260206004820181905260248201527f4f776e61626c653a2063616c6c6572206973206e6f7420746865206f776e657260448201526064016102e4565b6001600160a01b0381166108405760405162461bcd60e51b815260206004820152602660248201527f4f776e61626c653a206e6577206f776e657220697320746865207a65726f206160448201526564647265737360d01b60648201526084016102e4565b61084981610c9a565b50565b60006001600160e01b03198216636cdb3d1360e11b148061087d57506001600160e01b031982166303a24d0760e21b145b80610320575061032082610efb565b6127106001600160601b03821611156108fa5760405162461bcd60e51b815260206004820152602a60248201527f455243323938313a20726f79616c7479206665652077696c6c206578636565646044820152692073616c65507269636560b01b60648201526084016102e4565b6001600160a01b0382166109505760405162461bcd60e51b815260206004820152601960248201527f455243323938313a20696e76616c69642072656365697665720000000000000060448201526064016102e4565b604080518082019091526001600160a01b039092168083526001600160601b039091166020909201829052600160a01b90910217600055565b81518351146109eb5760405162461bcd60e51b815260206004820152602860248201527f455243313135353a2069647320616e6420616d6f756e7473206c656e677468206044820152670dad2e6dac2e8c6d60c31b60648201526084016102e4565b6001600160a01b038416610a115760405162461bcd60e51b81526004016102e4906118fb565b3360005b8451811015610afb576000858281518110610a3257610a326118ca565b602002602001015190506000858381518110610a5057610a506118ca565b60209081029190910181015160008481526002835260408082206001600160a01b038e168352909352919091205490915081811015610aa15760405162461bcd60e51b81526004016102e490611940565b60008381526002602090815260408083206001600160a01b038e8116855292528083208585039055908b16825281208054849290610ae090849061198a565b9250508190555050505080610af4906118e0565b9050610a15565b50846001600160a01b0316866001600160a01b0316826001600160a01b03167f4a39dc06d4c0dbc64b70af90fd698a233a518aa5d07e595d983b8c0526c8f7fb8787604051610b4b9291906119a2565b60405180910390a4610b61818787878787610f30565b505050505050565b6001600160a01b038416610bc95760405162461bcd60e51b815260206004820152602160248201527f455243313135353a206d696e7420746f20746865207a65726f206164647265736044820152607360f81b60648201526084016102e4565b336000610bd58561109b565b90506000610be28561109b565b905060008681526002602090815260408083206001600160a01b038b16845290915281208054879290610c1690849061198a565b909155505060408051878152602081018790526001600160a01b03808a1692600092918716917fc3d58168c5ae7397731d063d5bbf3d657854427343f4c083240f7aacaa2d0f62910160405180910390a4610556836000898989896110e6565b60008281526008602090815260409091208251610c95928401906111b0565b505050565b600780546001600160a01b038381166001600160a01b0319831681179093556040519116919082907f8be0079c531659141344cd1fd0a4f28419497f9722a3daafe3b4186f6b6457e090600090a35050565b816001600160a01b0316836001600160a01b03161415610d605760405162461bcd60e51b815260206004820152602960248201527f455243313135353a2073657474696e6720617070726f76616c20737461747573604482015268103337b91039b2b63360b91b60648201526084016102e4565b6001600160a01b03838116600081815260036020908152604080832094871680845294825291829020805460ff191686151590811790915591519182527f17307eab39ab6107e8899845ad3d59bd9653f200f220920489ca2b5937696c31910160405180910390a3505050565b6001600160a01b038416610df35760405162461bcd60e51b81526004016102e4906118fb565b336000610dff8561109b565b90506000610e0c8561109b565b905060008681526002602090815260408083206001600160a01b038c16845290915290205485811015610e515760405162461bcd60e51b81526004016102e490611940565b60008781526002602090815260408083206001600160a01b038d8116855292528083208985039055908a16825281208054889290610e9090849061198a565b909155505060408051888152602081018890526001600160a01b03808b16928c821692918816917fc3d58168c5ae7397731d063d5bbf3d657854427343f4c083240f7aacaa2d0f62910160405180910390a4610ef0848a8a8a8a8a6110e6565b505050505050505050565b60006001600160e01b0319821663152a902d60e11b148061032057506301ffc9a760e01b6001600160e01b0319831614610320565b6001600160a01b0384163b15610b615760405163bc197c8160e01b81526001600160a01b0385169063bc197c8190610f7490899089908890889088906004016119d0565b602060405180830381600087803b158015610f8e57600080fd5b505af1925050508015610fbe575060408051601f3d908101601f19168201909252610fbb91810190611a2e565b60015b61106b57610fca611a4b565b806308c379a014156110045750610fdf611a67565b80610fea5750611006565b8060405162461bcd60e51b81526004016102e49190611379565b505b60405162461bcd60e51b815260206004820152603460248201527f455243313135353a207472616e7366657220746f206e6f6e20455243313135356044820152732932b1b2b4bb32b91034b6b83632b6b2b73a32b960611b60648201526084016102e4565b6001600160e01b0319811663bc197c8160e01b146105565760405162461bcd60e51b81526004016102e490611af1565b604080516001808252818301909252606091600091906020808301908036833701905050905082816000815181106110d5576110d56118ca565b602090810291909101015292915050565b6001600160a01b0384163b15610b615760405163f23a6e6160e01b81526001600160a01b0385169063f23a6e619061112a9089908990889088908890600401611b39565b602060405180830381600087803b15801561114457600080fd5b505af1925050508015611174575060408051601f3d908101601f1916820190925261117191810190611a2e565b60015b61118057610fca611a4b565b6001600160e01b0319811663f23a6e6160e01b146105565760405162461bcd60e51b81526004016102e490611af1565b8280546111bc90611838565b90600052602060002090601f0160209004810192826111de5760008555611224565b82601f106111f757805160ff1916838001178555611224565b82800160010185558215611224579182015b82811115611224578251825591602001919060010190611209565b50611230929150611234565b5090565b5b808211156112305760008155600101611235565b80356001600160a01b038116811461126057600080fd5b919050565b6000806040838503121561127857600080fd5b61128183611249565b946020939093013593505050565b6001600160e01b03198116811461084957600080fd5b6000602082840312156112b757600080fd5b81356112c28161128f565b9392505050565b80356001600160601b038116811461126057600080fd5b600080604083850312156112f357600080fd5b6112fc83611249565b915061130a602084016112c9565b90509250929050565b60006020828403121561132557600080fd5b5035919050565b6000815180845260005b8181101561135257602081850181015186830182015201611336565b81811115611364576000602083870101525b50601f01601f19169290920160200192915050565b6020815260006112c2602083018461132c565b6000806040838503121561139f57600080fd5b50508035926020909101359150565b634e487b7160e01b600052604160045260246000fd5b601f8201601f1916810167ffffffffffffffff811182821017156113ea576113ea6113ae565b6040525050565b600067ffffffffffffffff82111561140b5761140b6113ae565b5060051b60200190565b600082601f83011261142657600080fd5b81356020611433826113f1565b60405161144082826113c4565b83815260059390931b850182019282810191508684111561146057600080fd5b8286015b8481101561147b5780358352918301918301611464565b509695505050505050565b600067ffffffffffffffff8311156114a0576114a06113ae565b6040516114b7601f8501601f1916602001826113c4565b8091508381528484840111156114cc57600080fd5b83836020830137600060208583010152509392505050565b600082601f8301126114f557600080fd5b6112c283833560208501611486565b600080600080600060a0868803121561151c57600080fd5b61152586611249565b945061153360208701611249565b9350604086013567ffffffffffffffff8082111561155057600080fd5b61155c89838a01611415565b9450606088013591508082111561157257600080fd5b61157e89838a01611415565b9350608088013591508082111561159457600080fd5b506115a1888289016114e4565b9150509295509295909350565b600080600080600060a086880312156115c657600080fd5b6115cf86611249565b94506115dd60208701611249565b93506115eb604087016112c9565b9250606086013567ffffffffffffffff81111561160757600080fd5b8601601f8101881361161857600080fd5b61162788823560208401611486565b95989497509295608001359392505050565b6000806040838503121561164c57600080fd5b823567ffffffffffffffff8082111561166457600080fd5b818501915085601f83011261167857600080fd5b81356020611685826113f1565b60405161169282826113c4565b83815260059390931b85018201928281019150898411156116b257600080fd5b948201945b838610156116d7576116c886611249565b825294820194908201906116b7565b965050860135925050808211156116ed57600080fd5b506116fa85828601611415565b9150509250929050565b600081518084526020808501945080840160005b8381101561173457815187529582019590820190600101611718565b509495945050505050565b6020815260006112c26020830184611704565b6000806040838503121561176557600080fd5b61176e83611249565b91506020830135801515811461178357600080fd5b809150509250929050565b600080604083850312156117a157600080fd5b6117aa83611249565b915061130a60208401611249565b600080600080600060a086880312156117d057600080fd5b6117d986611249565b94506117e760208701611249565b93506040860135925060608601359150608086013567ffffffffffffffff81111561181157600080fd5b6115a1888289016114e4565b60006020828403121561182f57600080fd5b6112c282611249565b600181811c9082168061184c57607f821691505b6020821081141561186d57634e487b7160e01b600052602260045260246000fd5b50919050565b634e487b7160e01b600052601160045260246000fd5b60008160001904831182151516156118a3576118a3611873565b500290565b6000826118c557634e487b7160e01b600052601260045260246000fd5b500490565b634e487b7160e01b600052603260045260246000fd5b60006000198214156118f4576118f4611873565b5060010190565b60208082526025908201527f455243313135353a207472616e7366657220746f20746865207a65726f206164604082015264647265737360d81b606082015260800190565b6020808252602a908201527f455243313135353a20696e73756666696369656e742062616c616e636520666f60408201526939103a3930b739b332b960b11b606082015260800190565b6000821982111561199d5761199d611873565b500190565b6040815260006119b56040830185611704565b82810360208401526119c78185611704565b95945050505050565b6001600160a01b0386811682528516602082015260a0604082018190526000906119fc90830186611704565b8281036060840152611a0e8186611704565b90508281036080840152611a22818561132c565b98975050505050505050565b600060208284031215611a4057600080fd5b81516112c28161128f565b600060033d1115611a645760046000803e5060005160e01c5b90565b600060443d1015611a755790565b6040516003193d81016004833e81513d67ffffffffffffffff8160248401118184111715611aa557505050505090565b8285019150815181811115611abd5750505050505090565b843d8701016020828501011115611ad75750505050505090565b611ae6602082860101876113c4565b509095945050505050565b60208082526028908201527f455243313135353a204552433131353552656365697665722072656a656374656040820152676420746f6b656e7360c01b606082015260800190565b6001600160a01b03868116825285166020820152604081018490526060810183905260a060808201819052600090611b739083018461132c565b97965050505050505056fea264697066735822122047afed6004adc8ed58feee39d35864d6877c0737468393413f2725e6e4da65e764736f6c63430008090033",
  "linkReferences": {},
  "deployedLinkReferences": {}
}