{
  "_format": "hh-sol-artifact-1",
  "contractName": "ERC721TokenV1",
  "sourceName": "contracts/ERC721TokenV1.sol",
  "abi": [
    {
      "inputs": [],
      "stateMutability": "nonpayable",
      "type": "constructor"
    },
    {
      "anonymous": false,
      "inputs": [
        {
          "indexed": true,
          "internalType": "address",
          "name": "owner",
          "type": "address"
        },
        {
          "indexed": true,
          "internalType": "address",
          "name": "approved",
          "type": "address"
        },
        {
          "indexed": true,
          "internalType": "uint256",
          "name": "tokenId",
          "type": "uint256"
        }
      ],
      "name": "Approval",
      "type": "event"
    },
    {
      "anonymous": false,
      "inputs": [
        {
          "indexed": true,
          "internalType": "address",
          "name": "owner",
          "type": "address"
        },
        {
          "indexed": true,
          "internalType": "address",
          "name": "operator",
          "type": "address"
        },
        {
          "indexed": false,
          "internalType": "bool",
          "name": "approved",
          "type": "bool"
        }
      ],
      "name": "ApprovalForAll",
      "type": "event"
    },
    {
      "anonymous": false,
      "inputs": [
        {
          "indexed": true,
          "internalType": "address",
          "name": "previousOwner",
          "type": "address"
        },
        {
          "indexed": true,
          "internalType": "address",
          "name": "newOwner",
          "type": "address"
        }
      ],
      "name": "OwnershipTransferred",
      "type": "event"
    },
    {
      "anonymous": false,
      "inputs": [
        {
          "indexed": true,
          "internalType": "address",
          "name": "from",
          "type": "address"
        },
        {
          "indexed": true,
          "internalType": "address",
          "name": "to",
          "type": "address"
        },
        {
          "indexed": true,
          "internalType": "uint256",
          "name": "tokenId",
          "type": "uint256"
        }
      ],
      "name": "Transfer",
      "type": "event"
    },
    {
      "inputs": [
        {
          "internalType": "address",
          "name": "to",
          "type": "address"
        },
        {
          "internalType": "uint256",
          "name": "tokenId",
          "type": "uint256"
        }
      ],
      "name": "approve",
      "outputs": [],
      "stateMutability": "nonpayable",
      "type": "function"
    },
    {
      "inputs": [
        {
          "internalType": "address",
          "name": "owner",
          "type": "address"
        }
      ],
      "name": "balanceOf",
      "outputs": [
        {
          "internalType": "uint256",
          "name": "",
          "type": "uint256"
        }
      ],
      "stateMutability": "view",
      "type": "function"
    },
    {
      "inputs": [
        {
          "internalType": "uint256",
          "name": "tokenId",
          "type": "uint256"
        }
      ],
      "name": "getApproved",
      "outputs": [
        {
          "internalType": "address",
          "name": "",
          "type": "address"
        }
      ],
      "stateMutability": "view",
      "type": "function"
    },
    {
      "inputs": [
        {
          "internalType": "address",
          "name": "owner",
          "type": "address"
        },
        {
          "internalType": "address",
          "name": "operator",
          "type": "address"
        }
      ],
      "name": "isApprovedForAll",
      "outputs": [
        {
          "internalType": "bool",
          "name": "",
          "type": "bool"
        }
      ],
      "stateMutability": "view",
      "type": "function"
    },
    {
      "inputs": [],
      "name": "name",
      "outputs": [
        {
          "internalType": "string",
          "name": "",
          "type": "string"
        }
      ],
      "stateMutability": "view",
      "type": "function"
    },
    {
      "inputs": [],
      "name": "owner",
      "outputs": [
        {
          "internalType": "address",
          "name": "",
          "type": "address"
        }
      ],
      "stateMutability": "view",
      "type": "function"
    },
    {
      "inputs": [
        {
          "internalType": "uint256",
          "name": "tokenId",
          "type": "uint256"
        }
      ],
      "name": "ownerOf",
      "outputs": [
        {
          "internalType": "address",
          "name": "",
          "type": "address"
        }
      ],
      "stateMutability": "view",
      "type": "function"
    },
    {
      "inputs": [],
      "name": "renounceOwnership",
      "outputs": [],
      "stateMutability": "nonpayable",
      "type": "function"
    },
    {
      "inputs": [
        {
          "internalType": "address",
          "name": "to",
          "type": "address"
        },
        {
          "internalType": "uint256",
          "name": "tokenId",
          "type": "uint256"
        }
      ],
      "name": "safeMint",
      "outputs": [],
      "stateMutability": "nonpayable",
      "type": "function"
    },
    {
      "inputs": [
        {
          "internalType": "address",
          "name": "from",
          "type": "address"
        },
        {
          "internalType": "address",
          "name": "to",
          "type": "address"
        },
        {
          "internalType": "uint256",
          "name": "tokenId",
          "type": "uint256"
        }
      ],
      "name": "safeTransferFrom",
      "outputs": [],
      "stateMutability": "nonpayable",
      "type": "function"
    },
    {
      "inputs": [
        {
          "internalType": "address",
          "name": "from",
          "type": "address"
        },
        {
          "internalType": "address",
          "name": "to",
          "type": "address"
        },
        {
          "internalType": "uint256",
          "name": "tokenId",
          "type": "uint256"
        },
        {
          "internalType": "bytes",
          "name": "_data",
          "type": "bytes"
        }
      ],
      "name": "safeTransferFrom",
      "outputs": [],
      "stateMutability": "nonpayable",
      "type": "function"
    },
    {
      "inputs": [
        {
          "internalType": "address",
          "name": "operator",
          "type": "address"
        },
        {
          "internalType": "bool",
          "name": "approved",
          "type": "bool"
        }
      ],
      "name": "setApprovalForAll",
      "outputs": [],
      "stateMutability": "nonpayable",
      "type": "function"
    },
    {
      "inputs": [
        {
          "internalType": "bytes4",
          "name": "interfaceId",
          "type": "bytes4"
        }
      ],
      "name": "supportsInterface",
      "outputs": [
        {
          "internalType": "bool",
          "name": "",
          "type": "bool"
        }
      ],
      "stateMutability": "view",
      "type": "function"
    },
    {
      "inputs": [],
      "name": "symbol",
      "outputs": [
        {
          "internalType": "string",
          "name": "",
          "type": "string"
        }
      ],
      "stateMutability": "view",
      "type": "function"
    },
    {
      "inputs": [
        {
          "internalType": "uint256",
          "name": "tokenId",
          "type": "uint256"
        }
      ],
      "name": "tokenURI",
      "outputs": [
        {
          "internalType": "string",
          "name": "",
          "type": "string"
        }
      ],
      "stateMutability": "view",
      "type": "function"
    },
    {
      "inputs": [
        {
          "internalType": "address",
          "name": "from",
          "type": "address"
        },
        {
          "internalType": "address",
          "name": "to",
          "type": "address"
        },
        {
          "internalType": "uint256",
          "name": "tokenId",
          "type": "uint256"
        }
      ],
      "name": "transferFrom",
      "outputs": [],
      "stateMutability": "nonpayable",
      "type": "function"
    },
    {
      "inputs": [
        {
          "internalType": "address",
          "name": "newOwner",
          "type": "address"
        }
      ],
      "name": "transferOwnership",
      "outputs": [],
      "stateMutability": "nonpayable",
      "type": "function"
    }
  ],
  "bytecode": "0x60806040523480156200001157600080fd5b50604080518082018252600580825264135e53919560da1b6020808401828152855180870190965292855284015281519192916200005291600091620000e1565b50805162000068906001906020840190620000e1565b505050620000856200007f6200008b60201b60201c565b6200008f565b620001c4565b3390565b600780546001600160a01b038381166001600160a01b0319831681179093556040519116919082907f8be0079c531659141344cd1fd0a4f28419497f9722a3daafe3b4186f6b6457e090600090a35050565b828054620000ef9062000187565b90600052602060002090601f0160209004810192826200011357600085556200015e565b82601f106200012e57805160ff19168380011785556200015e565b828001600101855582156200015e579182015b828111156200015e57825182559160200191906001019062000141565b506200016c92915062000170565b5090565b5b808211156200016c576000815560010162000171565b600181811c908216806200019c57607f821691505b60208210811415620001be57634e487b7160e01b600052602260045260246000fd5b50919050565b61177880620001d46000396000f3fe608060405234801561001057600080fd5b506004361061010b5760003560e01c8063715018a6116100a2578063a22cb46511610071578063a22cb4651461021b578063b88d4fde1461022e578063c87b56dd14610241578063e985e9c514610254578063f2fde38b1461029057600080fd5b8063715018a6146101e75780638da5cb5b146101ef57806395d89b4114610200578063a14481941461020857600080fd5b806323b872dd116100de57806323b872dd1461018d57806342842e0e146101a05780636352211e146101b357806370a08231146101c657600080fd5b806301ffc9a71461011057806306fdde0314610138578063081812fc1461014d578063095ea7b314610178575b600080fd5b61012361011e366004611253565b6102a3565b60405190151581526020015b60405180910390f35b6101406102f5565b60405161012f91906112c8565b61016061015b3660046112db565b610387565b6040516001600160a01b03909116815260200161012f565b61018b610186366004611310565b610421565b005b61018b61019b36600461133a565b610537565b61018b6101ae36600461133a565b610568565b6101606101c13660046112db565b610583565b6101d96101d4366004611376565b6105fa565b60405190815260200161012f565b61018b610681565b6007546001600160a01b0316610160565b6101406106b7565b61018b610216366004611310565b6106c6565b61018b610229366004611391565b6106fe565b61018b61023c3660046113e3565b610709565b61014061024f3660046112db565b610741565b6101236102623660046114bf565b6001600160a01b03918216600090815260056020908152604080832093909416825291909152205460ff1690565b61018b61029e366004611376565b61074c565b60006001600160e01b031982166380ac58cd60e01b14806102d457506001600160e01b03198216635b5e139f60e01b145b806102ef57506301ffc9a760e01b6001600160e01b03198316145b92915050565b606060008054610304906114f2565b80601f0160208091040260200160405190810160405280929190818152602001828054610330906114f2565b801561037d5780601f106103525761010080835404028352916020019161037d565b820191906000526020600020905b81548152906001019060200180831161036057829003601f168201915b5050505050905090565b6000818152600260205260408120546001600160a01b03166104055760405162461bcd60e51b815260206004820152602c60248201527f4552433732313a20617070726f76656420717565727920666f72206e6f6e657860448201526b34b9ba32b73a103a37b5b2b760a11b60648201526084015b60405180910390fd5b506000908152600460205260409020546001600160a01b031690565b600061042c82610583565b9050806001600160a01b0316836001600160a01b0316141561049a5760405162461bcd60e51b815260206004820152602160248201527f4552433732313a20617070726f76616c20746f2063757272656e74206f776e656044820152603960f91b60648201526084016103fc565b336001600160a01b03821614806104b657506104b68133610262565b6105285760405162461bcd60e51b815260206004820152603860248201527f4552433732313a20617070726f76652063616c6c6572206973206e6f74206f7760448201527f6e6572206e6f7220617070726f76656420666f7220616c6c000000000000000060648201526084016103fc565b61053283836107e7565b505050565b6105413382610855565b61055d5760405162461bcd60e51b81526004016103fc9061152d565b61053283838361094c565b61053283838360405180602001604052806000815250610709565b6000818152600260205260408120546001600160a01b0316806102ef5760405162461bcd60e51b815260206004820152602960248201527f4552433732313a206f776e657220717565727920666f72206e6f6e657869737460448201526832b73a103a37b5b2b760b91b60648201526084016103fc565b60006001600160a01b0382166106655760405162461bcd60e51b815260206004820152602a60248201527f4552433732313a2062616c616e636520717565727920666f7220746865207a65604482015269726f206164647265737360b01b60648201526084016103fc565b506001600160a01b031660009081526003602052604090205490565b6007546001600160a01b031633146106ab5760405162461bcd60e51b81526004016103fc9061157e565b6106b56000610ae8565b565b606060018054610304906114f2565b6007546001600160a01b031633146106f05760405162461bcd60e51b81526004016103fc9061157e565b6106fa8282610b3a565b5050565b6106fa338383610b54565b6107133383610855565b61072f5760405162461bcd60e51b81526004016103fc9061152d565b61073b84848484610c23565b50505050565b60606102ef82610c56565b6007546001600160a01b031633146107765760405162461bcd60e51b81526004016103fc9061157e565b6001600160a01b0381166107db5760405162461bcd60e51b815260206004820152602660248201527f4f776e61626c653a206e6577206f776e657220697320746865207a65726f206160448201526564647265737360d01b60648201526084016103fc565b6107e481610ae8565b50565b600081815260046020526040902080546001600160a01b0319166001600160a01b038416908117909155819061081c82610583565b6001600160a01b03167f8c5be1e5ebec7d5bd14f71427d1e84f3dd0314c0f7b2291e5b200ac8c7c3b92560405160405180910390a45050565b6000818152600260205260408120546001600160a01b03166108ce5760405162461bcd60e51b815260206004820152602c60248201527f4552433732313a206f70657261746f7220717565727920666f72206e6f6e657860448201526b34b9ba32b73a103a37b5b2b760a11b60648201526084016103fc565b60006108d983610583565b9050806001600160a01b0316846001600160a01b0316148061092057506001600160a01b0380821660009081526005602090815260408083209388168352929052205460ff165b806109445750836001600160a01b031661093984610387565b6001600160a01b0316145b949350505050565b826001600160a01b031661095f82610583565b6001600160a01b0316146109c35760405162461bcd60e51b815260206004820152602560248201527f4552433732313a207472616e736665722066726f6d20696e636f72726563742060448201526437bbb732b960d91b60648201526084016103fc565b6001600160a01b038216610a255760405162461bcd60e51b8152602060048201526024808201527f4552433732313a207472616e7366657220746f20746865207a65726f206164646044820152637265737360e01b60648201526084016103fc565b610a306000826107e7565b6001600160a01b0383166000908152600360205260408120805460019290610a599084906115c9565b90915550506001600160a01b0382166000908152600360205260408120805460019290610a879084906115e0565b909155505060008181526002602052604080822080546001600160a01b0319166001600160a01b0386811691821790925591518493918716917fddf252ad1be2c89b69c2b068fc378daa952ba7f163c4a11628f55a4df523b3ef91a4505050565b600780546001600160a01b038381166001600160a01b0319831681179093556040519116919082907f8be0079c531659141344cd1fd0a4f28419497f9722a3daafe3b4186f6b6457e090600090a35050565b6106fa828260405180602001604052806000815250610dd5565b816001600160a01b0316836001600160a01b03161415610bb65760405162461bcd60e51b815260206004820152601960248201527f4552433732313a20617070726f766520746f2063616c6c65720000000000000060448201526064016103fc565b6001600160a01b03838116600081815260056020908152604080832094871680845294825291829020805460ff191686151590811790915591519182527f17307eab39ab6107e8899845ad3d59bd9653f200f220920489ca2b5937696c31910160405180910390a3505050565b610c2e84848461094c565b610c3a84848484610e08565b61073b5760405162461bcd60e51b81526004016103fc906115f8565b6000818152600260205260409020546060906001600160a01b0316610cd75760405162461bcd60e51b815260206004820152603160248201527f45524337323155524953746f726167653a2055524920717565727920666f72206044820152703737b732bc34b9ba32b73a103a37b5b2b760791b60648201526084016103fc565b60008281526006602052604081208054610cf0906114f2565b80601f0160208091040260200160405190810160405280929190818152602001828054610d1c906114f2565b8015610d695780601f10610d3e57610100808354040283529160200191610d69565b820191906000526020600020905b815481529060010190602001808311610d4c57829003601f168201915b505050505090506000610d8760408051602081019091526000815290565b9050805160001415610d9a575092915050565b815115610dcc578082604051602001610db492919061164a565b60405160208183030381529060405292505050919050565b61094484610f15565b610ddf8383610ffd565b610dec6000848484610e08565b6105325760405162461bcd60e51b81526004016103fc906115f8565b60006001600160a01b0384163b15610f0a57604051630a85bd0160e11b81526001600160a01b0385169063150b7a0290610e4c903390899088908890600401611679565b602060405180830381600087803b158015610e6657600080fd5b505af1925050508015610e96575060408051601f3d908101601f19168201909252610e93918101906116b6565b60015b610ef0573d808015610ec4576040519150601f19603f3d011682016040523d82523d6000602084013e610ec9565b606091505b508051610ee85760405162461bcd60e51b81526004016103fc906115f8565b805181602001fd5b6001600160e01b031916630a85bd0160e11b149050610944565b506001949350505050565b6000818152600260205260409020546060906001600160a01b0316610f945760405162461bcd60e51b815260206004820152602f60248201527f4552433732314d657461646174613a2055524920717565727920666f72206e6f60448201526e3732bc34b9ba32b73a103a37b5b2b760891b60648201526084016103fc565b6000610fab60408051602081019091526000815290565b90506000815111610fcb5760405180602001604052806000815250610ff6565b80610fd58461113f565b604051602001610fe692919061164a565b6040516020818303038152906040525b9392505050565b6001600160a01b0382166110535760405162461bcd60e51b815260206004820181905260248201527f4552433732313a206d696e7420746f20746865207a65726f206164647265737360448201526064016103fc565b6000818152600260205260409020546001600160a01b0316156110b85760405162461bcd60e51b815260206004820152601c60248201527f4552433732313a20746f6b656e20616c7265616479206d696e7465640000000060448201526064016103fc565b6001600160a01b03821660009081526003602052604081208054600192906110e19084906115e0565b909155505060008181526002602052604080822080546001600160a01b0319166001600160a01b03861690811790915590518392907fddf252ad1be2c89b69c2b068fc378daa952ba7f163c4a11628f55a4df523b3ef908290a45050565b6060816111635750506040805180820190915260018152600360fc1b602082015290565b8160005b811561118d5780611177816116d3565b91506111869050600a83611704565b9150611167565b60008167ffffffffffffffff8111156111a8576111a86113cd565b6040519080825280601f01601f1916602001820160405280156111d2576020820181803683370190505b5090505b8415610944576111e76001836115c9565b91506111f4600a86611718565b6111ff9060306115e0565b60f81b8183815181106112145761121461172c565b60200101906001600160f81b031916908160001a905350611236600a86611704565b94506111d6565b6001600160e01b0319811681146107e457600080fd5b60006020828403121561126557600080fd5b8135610ff68161123d565b60005b8381101561128b578181015183820152602001611273565b8381111561073b5750506000910152565b600081518084526112b4816020860160208601611270565b601f01601f19169290920160200192915050565b602081526000610ff6602083018461129c565b6000602082840312156112ed57600080fd5b5035919050565b80356001600160a01b038116811461130b57600080fd5b919050565b6000806040838503121561132357600080fd5b61132c836112f4565b946020939093013593505050565b60008060006060848603121561134f57600080fd5b611358846112f4565b9250611366602085016112f4565b9150604084013590509250925092565b60006020828403121561138857600080fd5b610ff6826112f4565b600080604083850312156113a457600080fd5b6113ad836112f4565b9150602083013580151581146113c257600080fd5b809150509250929050565b634e487b7160e01b600052604160045260246000fd5b600080600080608085870312156113f957600080fd5b611402856112f4565b9350611410602086016112f4565b925060408501359150606085013567ffffffffffffffff8082111561143457600080fd5b818701915087601f83011261144857600080fd5b81358181111561145a5761145a6113cd565b604051601f8201601f19908116603f01168101908382118183101715611482576114826113cd565b816040528281528a602084870101111561149b57600080fd5b82602086016020830137600060208483010152809550505050505092959194509250565b600080604083850312156114d257600080fd5b6114db836112f4565b91506114e9602084016112f4565b90509250929050565b600181811c9082168061150657607f821691505b6020821081141561152757634e487b7160e01b600052602260045260246000fd5b50919050565b60208082526031908201527f4552433732313a207472616e736665722063616c6c6572206973206e6f74206f6040820152701ddb995c881b9bdc88185c1c1c9bdd9959607a1b606082015260800190565b6020808252818101527f4f776e61626c653a2063616c6c6572206973206e6f7420746865206f776e6572604082015260600190565b634e487b7160e01b600052601160045260246000fd5b6000828210156115db576115db6115b3565b500390565b600082198211156115f3576115f36115b3565b500190565b60208082526032908201527f4552433732313a207472616e7366657220746f206e6f6e20455243373231526560408201527131b2b4bb32b91034b6b83632b6b2b73a32b960711b606082015260800190565b6000835161165c818460208801611270565b835190830190611670818360208801611270565b01949350505050565b6001600160a01b03858116825284166020820152604081018390526080606082018190526000906116ac9083018461129c565b9695505050505050565b6000602082840312156116c857600080fd5b8151610ff68161123d565b60006000198214156116e7576116e76115b3565b5060010190565b634e487b7160e01b600052601260045260246000fd5b600082611713576117136116ee565b500490565b600082611727576117276116ee565b500690565b634e487b7160e01b600052603260045260246000fdfea264697066735822122078039227651a26702bfeefa6b6fc10066ef8aeddb5f8a14fd91d59ed1e1cc29f64736f6c63430008090033",
  "linkReferences": {},
  "deployedLinkReferences": {}
}