{
  "_format": "hh-sol-artifact-1",
  "contractName": "ERC721DappifyV1",
  "sourceName": "contracts/ERC721DappifyV1.sol",
  "abi": [
    {
      "inputs": [],
      "stateMutability": "nonpayable",
      "type": "constructor"
    },
    {
      "anonymous": false,
      "inputs": [
        {
          "indexed": true,
          "internalType": "address",
          "name": "owner",
          "type": "address"
        },
        {
          "indexed": true,
          "internalType": "address",
          "name": "approved",
          "type": "address"
        },
        {
          "indexed": true,
          "internalType": "uint256",
          "name": "tokenId",
          "type": "uint256"
        }
      ],
      "name": "Approval",
      "type": "event"
    },
    {
      "anonymous": false,
      "inputs": [
        {
          "indexed": true,
          "internalType": "address",
          "name": "owner",
          "type": "address"
        },
        {
          "indexed": true,
          "internalType": "address",
          "name": "operator",
          "type": "address"
        },
        {
          "indexed": false,
          "internalType": "bool",
          "name": "approved",
          "type": "bool"
        }
      ],
      "name": "ApprovalForAll",
      "type": "event"
    },
    {
      "anonymous": false,
      "inputs": [
        {
          "indexed": true,
          "internalType": "address",
          "name": "previousOwner",
          "type": "address"
        },
        {
          "indexed": true,
          "internalType": "address",
          "name": "newOwner",
          "type": "address"
        }
      ],
      "name": "OwnershipTransferred",
      "type": "event"
    },
    {
      "anonymous": false,
      "inputs": [
        {
          "indexed": true,
          "internalType": "address",
          "name": "from",
          "type": "address"
        },
        {
          "indexed": true,
          "internalType": "address",
          "name": "to",
          "type": "address"
        },
        {
          "indexed": true,
          "internalType": "uint256",
          "name": "tokenId",
          "type": "uint256"
        }
      ],
      "name": "Transfer",
      "type": "event"
    },
    {
      "inputs": [
        {
          "internalType": "address",
          "name": "to",
          "type": "address"
        },
        {
          "internalType": "uint256",
          "name": "tokenId",
          "type": "uint256"
        }
      ],
      "name": "approve",
      "outputs": [],
      "stateMutability": "nonpayable",
      "type": "function"
    },
    {
      "inputs": [
        {
          "internalType": "address",
          "name": "owner",
          "type": "address"
        }
      ],
      "name": "balanceOf",
      "outputs": [
        {
          "internalType": "uint256",
          "name": "",
          "type": "uint256"
        }
      ],
      "stateMutability": "view",
      "type": "function"
    },
    {
      "inputs": [
        {
          "internalType": "uint256",
          "name": "tokenId",
          "type": "uint256"
        }
      ],
      "name": "getApproved",
      "outputs": [
        {
          "internalType": "address",
          "name": "",
          "type": "address"
        }
      ],
      "stateMutability": "view",
      "type": "function"
    },
    {
      "inputs": [
        {
          "internalType": "address",
          "name": "owner",
          "type": "address"
        },
        {
          "internalType": "address",
          "name": "operator",
          "type": "address"
        }
      ],
      "name": "isApprovedForAll",
      "outputs": [
        {
          "internalType": "bool",
          "name": "",
          "type": "bool"
        }
      ],
      "stateMutability": "view",
      "type": "function"
    },
    {
      "inputs": [
        {
          "internalType": "address",
          "name": "_receiver",
          "type": "address"
        },
        {
          "internalType": "address",
          "name": "_beneficiary",
          "type": "address"
        },
        {
          "internalType": "uint96",
          "name": "_feeNumerator",
          "type": "uint96"
        },
        {
          "internalType": "string",
          "name": "_tokenURI",
          "type": "string"
        }
      ],
      "name": "mint",
      "outputs": [],
      "stateMutability": "nonpayable",
      "type": "function"
    },
    {
      "inputs": [],
      "name": "name",
      "outputs": [
        {
          "internalType": "string",
          "name": "",
          "type": "string"
        }
      ],
      "stateMutability": "view",
      "type": "function"
    },
    {
      "inputs": [],
      "name": "owner",
      "outputs": [
        {
          "internalType": "address",
          "name": "",
          "type": "address"
        }
      ],
      "stateMutability": "view",
      "type": "function"
    },
    {
      "inputs": [
        {
          "internalType": "uint256",
          "name": "tokenId",
          "type": "uint256"
        }
      ],
      "name": "ownerOf",
      "outputs": [
        {
          "internalType": "address",
          "name": "",
          "type": "address"
        }
      ],
      "stateMutability": "view",
      "type": "function"
    },
    {
      "inputs": [],
      "name": "renounceOwnership",
      "outputs": [],
      "stateMutability": "nonpayable",
      "type": "function"
    },
    {
      "inputs": [
        {
          "internalType": "uint256",
          "name": "_tokenId",
          "type": "uint256"
        },
        {
          "internalType": "uint256",
          "name": "_salePrice",
          "type": "uint256"
        }
      ],
      "name": "royaltyInfo",
      "outputs": [
        {
          "internalType": "address",
          "name": "",
          "type": "address"
        },
        {
          "internalType": "uint256",
          "name": "",
          "type": "uint256"
        }
      ],
      "stateMutability": "view",
      "type": "function"
    },
    {
      "inputs": [
        {
          "internalType": "address",
          "name": "from",
          "type": "address"
        },
        {
          "internalType": "address",
          "name": "to",
          "type": "address"
        },
        {
          "internalType": "uint256",
          "name": "tokenId",
          "type": "uint256"
        }
      ],
      "name": "safeTransferFrom",
      "outputs": [],
      "stateMutability": "nonpayable",
      "type": "function"
    },
    {
      "inputs": [
        {
          "internalType": "address",
          "name": "from",
          "type": "address"
        },
        {
          "internalType": "address",
          "name": "to",
          "type": "address"
        },
        {
          "internalType": "uint256",
          "name": "tokenId",
          "type": "uint256"
        },
        {
          "internalType": "bytes",
          "name": "_data",
          "type": "bytes"
        }
      ],
      "name": "safeTransferFrom",
      "outputs": [],
      "stateMutability": "nonpayable",
      "type": "function"
    },
    {
      "inputs": [
        {
          "internalType": "address",
          "name": "operator",
          "type": "address"
        },
        {
          "internalType": "bool",
          "name": "approved",
          "type": "bool"
        }
      ],
      "name": "setApprovalForAll",
      "outputs": [],
      "stateMutability": "nonpayable",
      "type": "function"
    },
    {
      "inputs": [
        {
          "internalType": "address",
          "name": "_receiver",
          "type": "address"
        },
        {
          "internalType": "uint96",
          "name": "_feeNumerator",
          "type": "uint96"
        }
      ],
      "name": "setDefaultRoyalty",
      "outputs": [],
      "stateMutability": "nonpayable",
      "type": "function"
    },
    {
      "inputs": [
        {
          "internalType": "bytes4",
          "name": "interfaceId",
          "type": "bytes4"
        }
      ],
      "name": "supportsInterface",
      "outputs": [
        {
          "internalType": "bool",
          "name": "",
          "type": "bool"
        }
      ],
      "stateMutability": "view",
      "type": "function"
    },
    {
      "inputs": [],
      "name": "symbol",
      "outputs": [
        {
          "internalType": "string",
          "name": "",
          "type": "string"
        }
      ],
      "stateMutability": "view",
      "type": "function"
    },
    {
      "inputs": [
        {
          "internalType": "uint256",
          "name": "tokenId",
          "type": "uint256"
        }
      ],
      "name": "tokenURI",
      "outputs": [
        {
          "internalType": "string",
          "name": "",
          "type": "string"
        }
      ],
      "stateMutability": "view",
      "type": "function"
    },
    {
      "inputs": [
        {
          "internalType": "address",
          "name": "from",
          "type": "address"
        },
        {
          "internalType": "address",
          "name": "to",
          "type": "address"
        },
        {
          "internalType": "uint256",
          "name": "tokenId",
          "type": "uint256"
        }
      ],
      "name": "transferFrom",
      "outputs": [],
      "stateMutability": "nonpayable",
      "type": "function"
    },
    {
      "inputs": [
        {
          "internalType": "address",
          "name": "newOwner",
          "type": "address"
        }
      ],
      "name": "transferOwnership",
      "outputs": [],
      "stateMutability": "nonpayable",
      "type": "function"
    }
  ],
  "bytecode": "0x60806040523480156200001157600080fd5b50604080518082018252600a81526911185c1c1a599e53919560b21b6020808301918252835180850190945260048452631113919560e21b9084015281519192916200006091600291620000ef565b50805162000076906003906020840190620000ef565b505050620000936200008d6200009960201b60201c565b6200009d565b620001d2565b3390565b600980546001600160a01b038381166001600160a01b0319831681179093556040519116919082907f8be0079c531659141344cd1fd0a4f28419497f9722a3daafe3b4186f6b6457e090600090a35050565b828054620000fd9062000195565b90600052602060002090601f0160209004810192826200012157600085556200016c565b82601f106200013c57805160ff19168380011785556200016c565b828001600101855582156200016c579182015b828111156200016c5782518255916020019190600101906200014f565b506200017a9291506200017e565b5090565b5b808211156200017a57600081556001016200017f565b600181811c90821680620001aa57607f821691505b60208210811415620001cc57634e487b7160e01b600052602260045260246000fd5b50919050565b611bd480620001e26000396000f3fe608060405234801561001057600080fd5b50600436106101215760003560e01c806370a08231116100ad578063b88d4fde11610071578063b88d4fde14610276578063b8f00d3214610289578063c87b56dd1461029c578063e985e9c5146102af578063f2fde38b146102eb57600080fd5b806370a0823114610221578063715018a6146102425780638da5cb5b1461024a57806395d89b411461025b578063a22cb4651461026357600080fd5b8063095ea7b3116100f4578063095ea7b3146101a357806323b872dd146101b65780632a55205a146101c957806342842e0e146101fb5780636352211e1461020e57600080fd5b806301ffc9a71461012657806304634d8d1461014e57806306fdde0314610163578063081812fc14610178575b600080fd5b6101396101343660046115f5565b6102fe565b60405190151581526020015b60405180910390f35b61016161015c366004611645565b61030f565b005b61016b61031d565b60405161014591906116d0565b61018b6101863660046116e3565b6103af565b6040516001600160a01b039091168152602001610145565b6101616101b13660046116fc565b61043c565b6101616101c4366004611726565b610552565b6101dc6101d7366004611762565b610583565b604080516001600160a01b039093168352602083019190915201610145565b610161610209366004611726565b61062f565b61018b61021c3660046116e3565b61064a565b61023461022f366004611784565b6106c1565b604051908152602001610145565b610161610748565b6009546001600160a01b031661018b565b61016b6107ae565b61016161027136600461179f565b6107bd565b610161610284366004611867565b6107c8565b6101616102973660046118e3565b610800565b61016b6102aa3660046116e3565b610840565b6101396102bd36600461193a565b6001600160a01b03918216600090815260076020908152604080832093909416825291909152205460ff1690565b6101616102f9366004611784565b6109b7565b600061030982610a82565b92915050565b6103198282610ac2565b5050565b60606002805461032c90611964565b80601f016020809104026020016040519081016040528092919081815260200182805461035890611964565b80156103a55780601f1061037a576101008083540402835291602001916103a5565b820191906000526020600020905b81548152906001019060200180831161038857829003601f168201915b5050505050905090565b60006103ba82610bbf565b6104205760405162461bcd60e51b815260206004820152602c60248201527f4552433732313a20617070726f76656420717565727920666f72206e6f6e657860448201526b34b9ba32b73a103a37b5b2b760a11b60648201526084015b60405180910390fd5b506000908152600660205260409020546001600160a01b031690565b60006104478261064a565b9050806001600160a01b0316836001600160a01b031614156104b55760405162461bcd60e51b815260206004820152602160248201527f4552433732313a20617070726f76616c20746f2063757272656e74206f776e656044820152603960f91b6064820152608401610417565b336001600160a01b03821614806104d157506104d181336102bd565b6105435760405162461bcd60e51b815260206004820152603860248201527f4552433732313a20617070726f76652063616c6c6572206973206e6f74206f7760448201527f6e6572206e6f7220617070726f76656420666f7220616c6c00000000000000006064820152608401610417565b61054d8383610bdc565b505050565b61055c3382610c4a565b6105785760405162461bcd60e51b81526004016104179061199f565b61054d838383610d33565b60008281526001602090815260408083208151808301909252546001600160a01b038116808352600160a01b9091046001600160601b03169282019290925282916105f85750604080518082019091526000546001600160a01b0381168252600160a01b90046001600160601b031660208201525b602081015160009061271090610617906001600160601b031687611a06565b6106219190611a3b565b915196919550909350505050565b61054d838383604051806020016040528060008152506107c8565b6000818152600460205260408120546001600160a01b0316806103095760405162461bcd60e51b815260206004820152602960248201527f4552433732313a206f776e657220717565727920666f72206e6f6e657869737460448201526832b73a103a37b5b2b760b91b6064820152608401610417565b60006001600160a01b03821661072c5760405162461bcd60e51b815260206004820152602a60248201527f4552433732313a2062616c616e636520717565727920666f7220746865207a65604482015269726f206164647265737360b01b6064820152608401610417565b506001600160a01b031660009081526005602052604090205490565b6009546001600160a01b031633146107a25760405162461bcd60e51b815260206004820181905260248201527f4f776e61626c653a2063616c6c6572206973206e6f7420746865206f776e65726044820152606401610417565b6107ac6000610ecf565b565b60606003805461032c90611964565b610319338383610f21565b6107d23383610c4a565b6107ee5760405162461bcd60e51b81526004016104179061199f565b6107fa84848484610ff0565b50505050565b61080e600a80546001019055565b6000610819600a5490565b90506108258582611023565b61082f8484610ac2565b610839818361103d565b5050505050565b606061084b82610bbf565b6108b15760405162461bcd60e51b815260206004820152603160248201527f45524337323155524953746f726167653a2055524920717565727920666f72206044820152703737b732bc34b9ba32b73a103a37b5b2b760791b6064820152608401610417565b600082815260086020526040812080546108ca90611964565b80601f01602080910402602001604051908101604052809291908181526020018280546108f690611964565b80156109435780601f1061091857610100808354040283529160200191610943565b820191906000526020600020905b81548152906001019060200180831161092657829003601f168201915b50505050509050600061096160408051602081019091526000815290565b9050805160001415610974575092915050565b8151156109a657808260405160200161098e929190611a4f565b60405160208183030381529060405292505050919050565b6109af846110c8565b949350505050565b6009546001600160a01b03163314610a115760405162461bcd60e51b815260206004820181905260248201527f4f776e61626c653a2063616c6c6572206973206e6f7420746865206f776e65726044820152606401610417565b6001600160a01b038116610a765760405162461bcd60e51b815260206004820152602660248201527f4f776e61626c653a206e6577206f776e657220697320746865207a65726f206160448201526564647265737360d01b6064820152608401610417565b610a7f81610ecf565b50565b60006001600160e01b031982166380ac58cd60e01b1480610ab357506001600160e01b03198216635b5e139f60e01b145b806103095750610309826111a0565b6127106001600160601b0382161115610b305760405162461bcd60e51b815260206004820152602a60248201527f455243323938313a20726f79616c7479206665652077696c6c206578636565646044820152692073616c65507269636560b01b6064820152608401610417565b6001600160a01b038216610b865760405162461bcd60e51b815260206004820152601960248201527f455243323938313a20696e76616c6964207265636569766572000000000000006044820152606401610417565b604080518082019091526001600160a01b039092168083526001600160601b039091166020909201829052600160a01b90910217600055565b6000908152600460205260409020546001600160a01b0316151590565b600081815260066020526040902080546001600160a01b0319166001600160a01b0384169081179091558190610c118261064a565b6001600160a01b03167f8c5be1e5ebec7d5bd14f71427d1e84f3dd0314c0f7b2291e5b200ac8c7c3b92560405160405180910390a45050565b6000610c5582610bbf565b610cb65760405162461bcd60e51b815260206004820152602c60248201527f4552433732313a206f70657261746f7220717565727920666f72206e6f6e657860448201526b34b9ba32b73a103a37b5b2b760a11b6064820152608401610417565b6000610cc18361064a565b9050806001600160a01b0316846001600160a01b03161480610d0857506001600160a01b0380821660009081526007602090815260408083209388168352929052205460ff165b806109af5750836001600160a01b0316610d21846103af565b6001600160a01b031614949350505050565b826001600160a01b0316610d468261064a565b6001600160a01b031614610daa5760405162461bcd60e51b815260206004820152602560248201527f4552433732313a207472616e736665722066726f6d20696e636f72726563742060448201526437bbb732b960d91b6064820152608401610417565b6001600160a01b038216610e0c5760405162461bcd60e51b8152602060048201526024808201527f4552433732313a207472616e7366657220746f20746865207a65726f206164646044820152637265737360e01b6064820152608401610417565b610e17600082610bdc565b6001600160a01b0383166000908152600560205260408120805460019290610e40908490611a7e565b90915550506001600160a01b0382166000908152600560205260408120805460019290610e6e908490611a95565b909155505060008181526004602052604080822080546001600160a01b0319166001600160a01b0386811691821790925591518493918716917fddf252ad1be2c89b69c2b068fc378daa952ba7f163c4a11628f55a4df523b3ef91a4505050565b600980546001600160a01b038381166001600160a01b0319831681179093556040519116919082907f8be0079c531659141344cd1fd0a4f28419497f9722a3daafe3b4186f6b6457e090600090a35050565b816001600160a01b0316836001600160a01b03161415610f835760405162461bcd60e51b815260206004820152601960248201527f4552433732313a20617070726f766520746f2063616c6c6572000000000000006044820152606401610417565b6001600160a01b03838116600081815260076020908152604080832094871680845294825291829020805460ff191686151590811790915591519182527f17307eab39ab6107e8899845ad3d59bd9653f200f220920489ca2b5937696c31910160405180910390a3505050565b610ffb848484610d33565b611007848484846111d5565b6107fa5760405162461bcd60e51b815260040161041790611aad565b6103198282604051806020016040528060008152506112e2565b61104682610bbf565b6110a95760405162461bcd60e51b815260206004820152602e60248201527f45524337323155524953746f726167653a2055524920736574206f66206e6f6e60448201526d32bc34b9ba32b73a103a37b5b2b760911b6064820152608401610417565b6000828152600860209081526040909120825161054d92840190611546565b60606110d382610bbf565b6111375760405162461bcd60e51b815260206004820152602f60248201527f4552433732314d657461646174613a2055524920717565727920666f72206e6f60448201526e3732bc34b9ba32b73a103a37b5b2b760891b6064820152608401610417565b600061114e60408051602081019091526000815290565b9050600081511161116e5760405180602001604052806000815250611199565b8061117884611315565b604051602001611189929190611a4f565b6040516020818303038152906040525b9392505050565b60006001600160e01b0319821663152a902d60e11b148061030957506301ffc9a760e01b6001600160e01b0319831614610309565b60006001600160a01b0384163b156112d757604051630a85bd0160e11b81526001600160a01b0385169063150b7a0290611219903390899088908890600401611aff565b602060405180830381600087803b15801561123357600080fd5b505af1925050508015611263575060408051601f3d908101601f1916820190925261126091810190611b3c565b60015b6112bd573d808015611291576040519150601f19603f3d011682016040523d82523d6000602084013e611296565b606091505b5080516112b55760405162461bcd60e51b815260040161041790611aad565b805181602001fd5b6001600160e01b031916630a85bd0160e11b1490506109af565b506001949350505050565b6112ec8383611413565b6112f960008484846111d5565b61054d5760405162461bcd60e51b815260040161041790611aad565b6060816113395750506040805180820190915260018152600360fc1b602082015290565b8160005b8115611363578061134d81611b59565b915061135c9050600a83611a3b565b915061133d565b60008167ffffffffffffffff81111561137e5761137e6117db565b6040519080825280601f01601f1916602001820160405280156113a8576020820181803683370190505b5090505b84156109af576113bd600183611a7e565b91506113ca600a86611b74565b6113d5906030611a95565b60f81b8183815181106113ea576113ea611b88565b60200101906001600160f81b031916908160001a90535061140c600a86611a3b565b94506113ac565b6001600160a01b0382166114695760405162461bcd60e51b815260206004820181905260248201527f4552433732313a206d696e7420746f20746865207a65726f20616464726573736044820152606401610417565b61147281610bbf565b156114bf5760405162461bcd60e51b815260206004820152601c60248201527f4552433732313a20746f6b656e20616c7265616479206d696e746564000000006044820152606401610417565b6001600160a01b03821660009081526005602052604081208054600192906114e8908490611a95565b909155505060008181526004602052604080822080546001600160a01b0319166001600160a01b03861690811790915590518392907fddf252ad1be2c89b69c2b068fc378daa952ba7f163c4a11628f55a4df523b3ef908290a45050565b82805461155290611964565b90600052602060002090601f01602090048101928261157457600085556115ba565b82601f1061158d57805160ff19168380011785556115ba565b828001600101855582156115ba579182015b828111156115ba57825182559160200191906001019061159f565b506115c69291506115ca565b5090565b5b808211156115c657600081556001016115cb565b6001600160e01b031981168114610a7f57600080fd5b60006020828403121561160757600080fd5b8135611199816115df565b80356001600160a01b038116811461162957600080fd5b919050565b80356001600160601b038116811461162957600080fd5b6000806040838503121561165857600080fd5b61166183611612565b915061166f6020840161162e565b90509250929050565b60005b8381101561169357818101518382015260200161167b565b838111156107fa5750506000910152565b600081518084526116bc816020860160208601611678565b601f01601f19169290920160200192915050565b60208152600061119960208301846116a4565b6000602082840312156116f557600080fd5b5035919050565b6000806040838503121561170f57600080fd5b61171883611612565b946020939093013593505050565b60008060006060848603121561173b57600080fd5b61174484611612565b925061175260208501611612565b9150604084013590509250925092565b6000806040838503121561177557600080fd5b50508035926020909101359150565b60006020828403121561179657600080fd5b61119982611612565b600080604083850312156117b257600080fd5b6117bb83611612565b9150602083013580151581146117d057600080fd5b809150509250929050565b634e487b7160e01b600052604160045260246000fd5b600067ffffffffffffffff8084111561180c5761180c6117db565b604051601f8501601f19908116603f01168101908282118183101715611834576118346117db565b8160405280935085815286868601111561184d57600080fd5b858560208301376000602087830101525050509392505050565b6000806000806080858703121561187d57600080fd5b61188685611612565b935061189460208601611612565b925060408501359150606085013567ffffffffffffffff8111156118b757600080fd5b8501601f810187136118c857600080fd5b6118d7878235602084016117f1565b91505092959194509250565b600080600080608085870312156118f957600080fd5b61190285611612565b935061191060208601611612565b925061191e6040860161162e565b9150606085013567ffffffffffffffff8111156118b757600080fd5b6000806040838503121561194d57600080fd5b61195683611612565b915061166f60208401611612565b600181811c9082168061197857607f821691505b6020821081141561199957634e487b7160e01b600052602260045260246000fd5b50919050565b60208082526031908201527f4552433732313a207472616e736665722063616c6c6572206973206e6f74206f6040820152701ddb995c881b9bdc88185c1c1c9bdd9959607a1b606082015260800190565b634e487b7160e01b600052601160045260246000fd5b6000816000190483118215151615611a2057611a206119f0565b500290565b634e487b7160e01b600052601260045260246000fd5b600082611a4a57611a4a611a25565b500490565b60008351611a61818460208801611678565b835190830190611a75818360208801611678565b01949350505050565b600082821015611a9057611a906119f0565b500390565b60008219821115611aa857611aa86119f0565b500190565b60208082526032908201527f4552433732313a207472616e7366657220746f206e6f6e20455243373231526560408201527131b2b4bb32b91034b6b83632b6b2b73a32b960711b606082015260800190565b6001600160a01b0385811682528416602082015260408101839052608060608201819052600090611b32908301846116a4565b9695505050505050565b600060208284031215611b4e57600080fd5b8151611199816115df565b6000600019821415611b6d57611b6d6119f0565b5060010190565b600082611b8357611b83611a25565b500690565b634e487b7160e01b600052603260045260246000fdfea2646970667358221220c39f2760016a7a46542fac9bf39f6472d3af126a3fbc11eaa5d77aba49ffcbcb64736f6c63430008090033",
  "linkReferences": {},
  "deployedLinkReferences": {}
}