{
  "_format": "hh-sol-artifact-1",
  "contractName": "ERC721MarketplaceV1",
  "sourceName": "contracts/ERC721MarketplaceV1.sol",
  "abi": [
    {
      "inputs": [],
      "stateMutability": "nonpayable",
      "type": "constructor"
    },
    {
      "anonymous": false,
      "inputs": [
        {
          "indexed": true,
          "internalType": "bytes32",
          "name": "offeringId",
          "type": "bytes32"
        },
        {
          "indexed": true,
          "internalType": "address",
          "name": "buyer",
          "type": "address"
        }
      ],
      "name": "OfferingClosed",
      "type": "event"
    },
    {
      "anonymous": false,
      "inputs": [
        {
          "indexed": true,
          "internalType": "bytes32",
          "name": "offeringId",
          "type": "bytes32"
        },
        {
          "indexed": true,
          "internalType": "address",
          "name": "hostContract",
          "type": "address"
        },
        {
          "indexed": false,
          "internalType": "uint256",
          "name": "tokenId",
          "type": "uint256"
        },
        {
          "indexed": false,
          "internalType": "uint256",
          "name": "price",
          "type": "uint256"
        },
        {
          "indexed": false,
          "internalType": "address",
          "name": "provider",
          "type": "address"
        },
        {
          "indexed": false,
          "internalType": "uint256",
          "name": "providerAmount",
          "type": "uint256"
        },
        {
          "indexed": false,
          "internalType": "address",
          "name": "operator",
          "type": "address"
        },
        {
          "indexed": false,
          "internalType": "uint256",
          "name": "operatorAmount",
          "type": "uint256"
        },
        {
          "indexed": false,
          "internalType": "address",
          "name": "creator",
          "type": "address"
        },
        {
          "indexed": false,
          "internalType": "uint256",
          "name": "creatorAmount",
          "type": "uint256"
        },
        {
          "indexed": false,
          "internalType": "address",
          "name": "seller",
          "type": "address"
        },
        {
          "indexed": false,
          "internalType": "uint256",
          "name": "sellerAmount",
          "type": "uint256"
        }
      ],
      "name": "OfferingPlaced",
      "type": "event"
    },
    {
      "anonymous": false,
      "inputs": [
        {
          "indexed": true,
          "internalType": "bytes32",
          "name": "offeringId",
          "type": "bytes32"
        },
        {
          "indexed": false,
          "internalType": "uint256",
          "name": "price",
          "type": "uint256"
        }
      ],
      "name": "OfferingUpdated",
      "type": "event"
    },
    {
      "anonymous": false,
      "inputs": [
        {
          "indexed": true,
          "internalType": "bytes32",
          "name": "offeringId",
          "type": "bytes32"
        },
        {
          "indexed": true,
          "internalType": "address",
          "name": "seller",
          "type": "address"
        }
      ],
      "name": "OfferingWithdrawn",
      "type": "event"
    },
    {
      "inputs": [
        {
          "internalType": "bytes32",
          "name": "_offeringId",
          "type": "bytes32"
        }
      ],
      "name": "closeOffering",
      "outputs": [],
      "stateMutability": "payable",
      "type": "function"
    },
    {
      "inputs": [
        {
          "internalType": "address",
          "name": "_address",
          "type": "address"
        }
      ],
      "name": "getRoyaltyFee",
      "outputs": [
        {
          "internalType": "uint16",
          "name": "",
          "type": "uint16"
        }
      ],
      "stateMutability": "view",
      "type": "function"
    },
    {
      "inputs": [
        {
          "internalType": "address",
          "name": "_hostContract",
          "type": "address"
        },
        {
          "internalType": "uint256",
          "name": "_tokenId",
          "type": "uint256"
        },
        {
          "internalType": "uint256",
          "name": "_price",
          "type": "uint256"
        },
        {
          "internalType": "address",
          "name": "_operatorReceiver",
          "type": "address"
        }
      ],
      "name": "placeOffering",
      "outputs": [],
      "stateMutability": "nonpayable",
      "type": "function"
    },
    {
      "inputs": [
        {
          "internalType": "address",
          "name": "_hostContract",
          "type": "address"
        },
        {
          "internalType": "uint256",
          "name": "_tokenId",
          "type": "uint256"
        },
        {
          "internalType": "uint256",
          "name": "_price",
          "type": "uint256"
        },
        {
          "internalType": "address",
          "name": "_operatorReceiver",
          "type": "address"
        }
      ],
      "name": "previewPlaceOffering",
      "outputs": [
        {
          "internalType": "uint256",
          "name": "sellerCut",
          "type": "uint256"
        },
        {
          "internalType": "address",
          "name": "artist",
          "type": "address"
        }
      ],
      "stateMutability": "view",
      "type": "function"
    },
    {
      "inputs": [
        {
          "internalType": "uint16",
          "name": "_newFee",
          "type": "uint16"
        }
      ],
      "name": "setRoyaltyFee",
      "outputs": [],
      "stateMutability": "nonpayable",
      "type": "function"
    },
    {
      "inputs": [
        {
          "internalType": "bytes32",
          "name": "_offeringId",
          "type": "bytes32"
        },
        {
          "internalType": "uint256",
          "name": "_price",
          "type": "uint256"
        }
      ],
      "name": "updateOffering",
      "outputs": [],
      "stateMutability": "nonpayable",
      "type": "function"
    },
    {
      "inputs": [
        {
          "internalType": "bytes32",
          "name": "_offeringId",
          "type": "bytes32"
        }
      ],
      "name": "viewOffering",
      "outputs": [
        {
          "internalType": "address",
          "name": "",
          "type": "address"
        },
        {
          "internalType": "uint256",
          "name": "",
          "type": "uint256"
        },
        {
          "internalType": "uint256",
          "name": "",
          "type": "uint256"
        },
        {
          "internalType": "bool",
          "name": "",
          "type": "bool"
        },
        {
          "internalType": "uint256",
          "name": "",
          "type": "uint256"
        }
      ],
      "stateMutability": "view",
      "type": "function"
    },
    {
      "inputs": [],
      "name": "viewProvider",
      "outputs": [
        {
          "internalType": "address",
          "name": "",
          "type": "address"
        }
      ],
      "stateMutability": "view",
      "type": "function"
    },
    {
      "inputs": [
        {
          "internalType": "bytes32",
          "name": "_offeringId",
          "type": "bytes32"
        }
      ],
      "name": "withdrawOffering",
      "outputs": [],
      "stateMutability": "nonpayable",
      "type": "function"
    }
  ],
  "bytecode": "0x608060405234801561001057600080fd5b50600080546001600160a01b03191633179055611269806100326000396000f3fe6080604052600436106100865760003560e01c8063ac323a1f11610059578063ac323a1f1461013a578063e25e0dd21461017a578063ed1f37d214610206578063f17a3e0814610226578063f1fb0d5f1461024657600080fd5b8063030532101461008b578063330ef231146100dd5780639acc97d8146100f2578063a1c8d43a1461011a575b600080fd5b34801561009757600080fd5b506100c56100a6366004611073565b6001600160a01b031660009081526003602052604090205461ffff1690565b60405161ffff90911681526020015b60405180910390f35b6100f06100eb366004611097565b610283565b005b3480156100fe57600080fd5b506000546040516001600160a01b0390911681526020016100d4565b34801561012657600080fd5b506100f06101353660046110b0565b6106f0565b34801561014657600080fd5b506100f06101553660046110fa565b336000908152600360205260409020805461ffff191661ffff92909216919091179055565b34801561018657600080fd5b506101d2610195366004611097565b600090815260026020819052604090912060018101549181015460038201548254600b909301546001600160a01b03909416949193909260ff1691565b604080516001600160a01b03909616865260208601949094529284019190915215156060830152608082015260a0016100d4565b34801561021257600080fd5b506100f0610221366004611097565b610934565b34801561023257600080fd5b506100f061024136600461111e565b610a5f565b34801561025257600080fd5b506102666102613660046110b0565b610c2b565b604080519283526001600160a01b039091166020830152016100d4565b6000818152600260205260409020600301543410156102e95760405162461bcd60e51b815260206004820152601760248201527f4e6f7420656e6f7567682066756e647320746f2062757900000000000000000060448201526064015b60405180910390fd5b60008181526002602052604090205460ff161515600114156103425760405162461bcd60e51b815260206004820152601260248201527113d999995c9a5b99c81a5cc818db1bdcd95960721b60448201526064016102e0565b60008181526002602081905260409182902060018101548154919092015492516331a9108f60e11b815260048101939093526001600160a01b0391821692610100909104909116908290636352211e9060240160206040518083038186803b1580156103ad57600080fd5b505afa1580156103c1573d6000803e3d6000fd5b505050506040513d601f19601f820116820180604052508101906103e59190611140565b6001600160a01b0316146104705760405162461bcd60e51b815260206004820152604660248201527f4f66666572206973206e6f206c6f6e6765722076616c69642c20746f6b656e2060448201527f776173207472616e736665726564206f75747369646520746865206d61726b6560648201526574706c61636560d01b608482015260a4016102e0565b6000828152600260205260409020805460ff19166001178155600401546001600160a01b0316156104eb57600082815260026020526040808220600481015460059091015491516001600160a01b039091169282156108fc02929190818181858888f193505050501580156104e9573d6000803e3d6000fd5b505b6000828152600260205260409020600801546001600160a01b03161561055b57600082815260026020526040808220600881015460099091015491516001600160a01b039091169282156108fc02929190818181858888f19350505050158015610559573d6000803e3d6000fd5b505b6000828152600260205260409020600601546001600160a01b0316156105cb57600082815260026020526040808220600681015460079091015491516001600160a01b039091169282156108fc02929190818181858888f193505050501580156105c9573d6000803e3d6000fd5b505b6000828152600260205260409020600a01546001600160a01b03161561063b57600082815260026020526040808220600a810154600b9091015491516001600160a01b039091169282156108fc02929190818181858888f19350505050158015610639573d6000803e3d6000fd5b505b60008281526002602081905260409182902080549101549151632142170760e11b81526001600160a01b036101009092048216600482015233602482015260448101929092528216906342842e0e90606401600060405180830381600087803b1580156106a757600080fd5b505af11580156106bb573d6000803e3d6000fd5b50506040513392508491507f0cfb1c3841b1ebe2ad43e9d641c358c0d40c4a10fc3c2ee73fd956a2658ed14490600090a35050565b6040516331a9108f60e11b815260048101849052849033906001600160a01b03831690636352211e9060240160206040518083038186803b15801561073457600080fd5b505afa158015610748573d6000803e3d6000fd5b505050506040513d601f19601f8201168201806040525081019061076c9190611140565b6001600160a01b0316146107d25760405162461bcd60e51b815260206004820152602760248201527f4f6e6c7920746f6b656e206f776e6572732063616e20707574207468656d20666044820152666f722073616c6560c81b60648201526084016102e0565b6001546040805160208101929092526bffffffffffffffffffffffff19606088901b16908201526054810185905260009060740160408051808303601f19018152918152815160209283012060008181526002938490529182208054610100600160a81b03191633610100021781556001810180546001600160a01b0319166001600160a01b038c1617905592830188905560039092018690559091508080808061087e868a8a610dca565b94509450945094509450600180600082825461089a9190611173565b9091555050600054604080518c8152602081018c90526001600160a01b0392831681830152606081018890528a8316608082015260a0810187905285831660c082015260e081018590523361010082015261012081018490529051918d169188917f89ce14e74968e046cf0ff59eca97183906b42a294af1c3ed1ab94b5d7799421091908190036101400190a35050505050505050505050565b60008181526002602052604090205461010090046001600160a01b031633146109ab5760405162461bcd60e51b815260206004820152602360248201527f4f6e6c792073656c6c65722063616e20706572666f726d20746869732061637460448201526234b7b760e91b60648201526084016102e0565b600081815260026020819052604080832080546001600160a81b03191681556001810180546001600160a01b031990811690915592810184905560038101849055600481018054841690556005810184905560068101805484169055600781018490556008810180548416905560098101849055600a81018054909316909255600b90910182905551339183917f12f32b32b0219966d83751d629b500d75ba2b2d7dda18dcbb71bbb6dcd28d5779190a350565b60008281526002602052604090205460ff16151560011415610ab85760405162461bcd60e51b815260206004820152601260248201527113d999995c9a5b99c81a5cc818db1bdcd95960721b60448201526064016102e0565b600082815260026020819052604091829020600181015491015491516331a9108f60e11b815260048101929092526001600160a01b03169033908290636352211e9060240160206040518083038186803b158015610b1557600080fd5b505afa158015610b29573d6000803e3d6000fd5b505050506040513d601f19601f82011682018060405250810190610b4d9190611140565b6001600160a01b031614610bb85760405162461bcd60e51b815260206004820152602c60248201527f4f6e6c792074686520746f6b656e206f776e65722063616e20706572666f726d60448201526b103a3434b99030b1ba34b7b760a11b60648201526084016102e0565b60008381526002602052604090206003810183905560080154610be790849084906001600160a01b0316610dca565b5050505050827f0172b169b47029a14f432b31a97dd89dc96c1c09754ce9d23c79f9f1c0dd878a83604051610c1e91815260200190565b60405180910390a2505050565b600080546001600160a01b031681526003602052604081205481908190610c5790869061ffff16611035565b9050610c63818661118b565b6001600160a01b03851660009081526003602052604081205491965090610c8f90879061ffff16611035565b9050610c9b818761118b565b6040516301ffc9a760e01b815263152a902d60e11b600482015290965060009081906001600160a01b038b16906301ffc9a79060240160206040518083038186803b158015610ce957600080fd5b505afa158015610cfd573d6000803e3d6000fd5b505050506040513d601f19601f82011682018060405250810190610d2191906111a2565b610d2d57600080610dab565b60405163152a902d60e11b8152600481018a9052602481018990526001600160a01b038b1690632a55205a90604401604080518083038186803b158015610d7357600080fd5b505afa158015610d87573d6000803e3d6000fd5b505050506040513d601f19601f82011682018060405250810190610dab91906111c4565b9092509050610dba818961118b565b9a91995090975050505050505050565b600080546001600160a01b031681526003602052604081205481908190819081908190610dfc90899061ffff16611035565b9050610e08818961118b565b600080548b82526002602090815260408084206004810180546001600160a01b0319166001600160a01b03958616179055600501869055918b1683526003905281205491995090610e5e908a9061ffff16611035565b9050610e6a818a61118b565b60008b8152600260205260408082206008810180546001600160a01b0319166001600160a01b038e8116919091179091556009820186905560019091015491516301ffc9a760e01b815263152a902d60e11b6004820152939c509192839291909116906301ffc9a79060240160206040518083038186803b158015610eee57600080fd5b505afa158015610f02573d6000803e3d6000fd5b505050506040513d601f19601f82011682018060405250810190610f2691906111a2565b610f3257600080610fc9565b60008c8152600260208190526040918290206001810154910154915163152a902d60e11b81526004810192909252602482018d90526001600160a01b031690632a55205a90604401604080518083038186803b158015610f9157600080fd5b505afa158015610fa5573d6000803e3d6000fd5b505050506040513d601f19601f82011682018060405250810190610fc991906111c4565b9092509050610fd8818c61118b565b60009c8d5260026020526040909c206006810180546001600160a01b0385166001600160a01b03199182161790915560078201839055600a8201805490911633179055600b018c9055929b919a9099509197509095509350505050565b60008061271061104961ffff8516866111f2565b6110539190611211565b949350505050565b6001600160a01b038116811461107057600080fd5b50565b60006020828403121561108557600080fd5b81356110908161105b565b9392505050565b6000602082840312156110a957600080fd5b5035919050565b600080600080608085870312156110c657600080fd5b84356110d18161105b565b9350602085013592506040850135915060608501356110ef8161105b565b939692955090935050565b60006020828403121561110c57600080fd5b813561ffff8116811461109057600080fd5b6000806040838503121561113157600080fd5b50508035926020909101359150565b60006020828403121561115257600080fd5b81516110908161105b565b634e487b7160e01b600052601160045260246000fd5b600082198211156111865761118661115d565b500190565b60008282101561119d5761119d61115d565b500390565b6000602082840312156111b457600080fd5b8151801515811461109057600080fd5b600080604083850312156111d757600080fd5b82516111e28161105b565b6020939093015192949293505050565b600081600019048311821515161561120c5761120c61115d565b500290565b60008261122e57634e487b7160e01b600052601260045260246000fd5b50049056fea2646970667358221220be291ce45fd311c091879d68f338b23ace62659f89cd367802f8d004387a375464736f6c63430008090033",
  "linkReferences": {},
  "deployedLinkReferences": {}
}