{
  "_format": "hh-sol-artifact-1",
  "contractName": "Marketplace",
  "sourceName": "contracts/Marketplace.sol",
  "abi": [
    {
      "inputs": [
        {
          "internalType": "address",
          "name": "_operator",
          "type": "address"
        },
        {
          "internalType": "uint256",
          "name": "_operatorFee",
          "type": "uint256"
        },
        {
          "internalType": "address",
          "name": "_provider",
          "type": "address"
        },
        {
          "internalType": "uint256",
          "name": "_providerFee",
          "type": "uint256"
        }
      ],
      "stateMutability": "nonpayable",
      "type": "constructor"
    },
    {
      "anonymous": false,
      "inputs": [
        {
          "indexed": true,
          "internalType": "address",
          "name": "beneficiary",
          "type": "address"
        },
        {
          "indexed": false,
          "internalType": "uint256",
          "name": "amount",
          "type": "uint256"
        }
      ],
      "name": "BalanceWithdrawn",
      "type": "event"
    },
    {
      "anonymous": false,
      "inputs": [
        {
          "indexed": true,
          "internalType": "bytes32",
          "name": "offeringId",
          "type": "bytes32"
        },
        {
          "indexed": true,
          "internalType": "address",
          "name": "buyer",
          "type": "address"
        }
      ],
      "name": "OfferingClosed",
      "type": "event"
    },
    {
      "anonymous": false,
      "inputs": [
        {
          "indexed": true,
          "internalType": "bytes32",
          "name": "offeringId",
          "type": "bytes32"
        },
        {
          "indexed": true,
          "internalType": "address",
          "name": "hostContract",
          "type": "address"
        },
        {
          "indexed": true,
          "internalType": "address",
          "name": "offerer",
          "type": "address"
        },
        {
          "indexed": false,
          "internalType": "uint256",
          "name": "tokenId",
          "type": "uint256"
        },
        {
          "indexed": false,
          "internalType": "uint256",
          "name": "price",
          "type": "uint256"
        },
        {
          "indexed": false,
          "internalType": "string",
          "name": "uri",
          "type": "string"
        }
      ],
      "name": "OfferingPlaced",
      "type": "event"
    },
    {
      "anonymous": false,
      "inputs": [
        {
          "indexed": true,
          "internalType": "bytes32",
          "name": "offeringId",
          "type": "bytes32"
        },
        {
          "indexed": false,
          "internalType": "uint256",
          "name": "price",
          "type": "uint256"
        }
      ],
      "name": "OfferingUpdated",
      "type": "event"
    },
    {
      "anonymous": false,
      "inputs": [
        {
          "indexed": true,
          "internalType": "bytes32",
          "name": "offeringId",
          "type": "bytes32"
        },
        {
          "indexed": true,
          "internalType": "address",
          "name": "seller",
          "type": "address"
        }
      ],
      "name": "OfferingWithdrawn",
      "type": "event"
    },
    {
      "anonymous": false,
      "inputs": [
        {
          "indexed": false,
          "internalType": "address",
          "name": "previousOperator",
          "type": "address"
        },
        {
          "indexed": false,
          "internalType": "address",
          "name": "newOperator",
          "type": "address"
        }
      ],
      "name": "OperatorChanged",
      "type": "event"
    },
    {
      "anonymous": false,
      "inputs": [
        {
          "indexed": false,
          "internalType": "uint256",
          "name": "previousOperatorFee",
          "type": "uint256"
        },
        {
          "indexed": false,
          "internalType": "uint256",
          "name": "newOperatorFee",
          "type": "uint256"
        }
      ],
      "name": "OperatorFeeChanged",
      "type": "event"
    },
    {
      "anonymous": false,
      "inputs": [
        {
          "indexed": false,
          "internalType": "address",
          "name": "previousProvider",
          "type": "address"
        },
        {
          "indexed": false,
          "internalType": "address",
          "name": "newProvider",
          "type": "address"
        }
      ],
      "name": "ProviderChanged",
      "type": "event"
    },
    {
      "anonymous": false,
      "inputs": [
        {
          "indexed": false,
          "internalType": "uint256",
          "name": "previousProviderFee",
          "type": "uint256"
        },
        {
          "indexed": false,
          "internalType": "uint256",
          "name": "newProviderFee",
          "type": "uint256"
        }
      ],
      "name": "ProviderFeeChanged",
      "type": "event"
    },
    {
      "inputs": [
        {
          "internalType": "address",
          "name": "_newOperator",
          "type": "address"
        }
      ],
      "name": "changeOperator",
      "outputs": [],
      "stateMutability": "nonpayable",
      "type": "function"
    },
    {
      "inputs": [
        {
          "internalType": "uint256",
          "name": "_newOperatorFee",
          "type": "uint256"
        }
      ],
      "name": "changeOperatorFee",
      "outputs": [],
      "stateMutability": "nonpayable",
      "type": "function"
    },
    {
      "inputs": [
        {
          "internalType": "address",
          "name": "_newProvider",
          "type": "address"
        }
      ],
      "name": "changeProvider",
      "outputs": [],
      "stateMutability": "nonpayable",
      "type": "function"
    },
    {
      "inputs": [
        {
          "internalType": "uint256",
          "name": "_providerFee",
          "type": "uint256"
        }
      ],
      "name": "changeProviderFee",
      "outputs": [],
      "stateMutability": "nonpayable",
      "type": "function"
    },
    {
      "inputs": [
        {
          "internalType": "bytes32",
          "name": "_offeringId",
          "type": "bytes32"
        }
      ],
      "name": "closeOffering",
      "outputs": [],
      "stateMutability": "payable",
      "type": "function"
    },
    {
      "inputs": [
        {
          "internalType": "address",
          "name": "_hostContract",
          "type": "address"
        },
        {
          "internalType": "uint256",
          "name": "_tokenId",
          "type": "uint256"
        },
        {
          "internalType": "uint256",
          "name": "_price",
          "type": "uint256"
        }
      ],
      "name": "placeOffering",
      "outputs": [],
      "stateMutability": "nonpayable",
      "type": "function"
    },
    {
      "inputs": [
        {
          "internalType": "bytes32",
          "name": "_offeringId",
          "type": "bytes32"
        },
        {
          "internalType": "uint256",
          "name": "_price",
          "type": "uint256"
        }
      ],
      "name": "updateOffering",
      "outputs": [],
      "stateMutability": "nonpayable",
      "type": "function"
    },
    {
      "inputs": [
        {
          "internalType": "address",
          "name": "_address",
          "type": "address"
        }
      ],
      "name": "viewBalances",
      "outputs": [
        {
          "internalType": "uint256",
          "name": "",
          "type": "uint256"
        }
      ],
      "stateMutability": "view",
      "type": "function"
    },
    {
      "inputs": [
        {
          "internalType": "bytes32",
          "name": "_offeringId",
          "type": "bytes32"
        }
      ],
      "name": "viewOffering",
      "outputs": [
        {
          "internalType": "address",
          "name": "",
          "type": "address"
        },
        {
          "internalType": "uint256",
          "name": "",
          "type": "uint256"
        },
        {
          "internalType": "uint256",
          "name": "",
          "type": "uint256"
        },
        {
          "internalType": "bool",
          "name": "",
          "type": "bool"
        }
      ],
      "stateMutability": "view",
      "type": "function"
    },
    {
      "inputs": [],
      "name": "viewOperator",
      "outputs": [
        {
          "internalType": "address",
          "name": "",
          "type": "address"
        }
      ],
      "stateMutability": "view",
      "type": "function"
    },
    {
      "inputs": [],
      "name": "viewOperatorFee",
      "outputs": [
        {
          "internalType": "uint256",
          "name": "",
          "type": "uint256"
        }
      ],
      "stateMutability": "view",
      "type": "function"
    },
    {
      "inputs": [],
      "name": "viewProvider",
      "outputs": [
        {
          "internalType": "address",
          "name": "",
          "type": "address"
        }
      ],
      "stateMutability": "view",
      "type": "function"
    },
    {
      "inputs": [],
      "name": "viewProviderFee",
      "outputs": [
        {
          "internalType": "uint256",
          "name": "",
          "type": "uint256"
        }
      ],
      "stateMutability": "view",
      "type": "function"
    },
    {
      "inputs": [],
      "name": "withdrawBalance",
      "outputs": [],
      "stateMutability": "nonpayable",
      "type": "function"
    },
    {
      "inputs": [
        {
          "internalType": "bytes32",
          "name": "_offeringId",
          "type": "bytes32"
        }
      ],
      "name": "withdrawOffering",
      "outputs": [],
      "stateMutability": "nonpayable",
      "type": "function"
    }
  ],
  "bytecode": "0x608060405234801561001057600080fd5b5060405161125b38038061125b83398101604081905261002f916100e8565b61003881610073565b600080546001600160a01b03199081166001600160a01b0396871617909155600193909355600280549093169190931617905560035561012c565b6101f48111156100c95760405162461bcd60e51b815260206004820152601d60248201527f50726f7669646572206665652063616e6e6f7420657863656564203525000000604482015260640160405180910390fd5b50565b80516001600160a01b03811681146100e357600080fd5b919050565b600080600080608085870312156100fe57600080fd5b610107856100cc565b93506020850151925061011c604086016100cc565b6060959095015193969295505050565b6111208061013b6000396000f3fe6080604052600436106100e85760003560e01c8063796f69aa1161008a578063e25e0dd211610059578063e25e0dd214610258578063ed1f37d2146102d7578063f0f51bd7146102f7578063f17a3e081461031557600080fd5b8063796f69aa146101d15780639acc97d8146101f1578063cbef983014610223578063e1c25c111461024357600080fd5b806349eb2867116100c657806349eb2867146101425780634b5822b114610166578063531020e91461019c5780635fd8c710146101bc57600080fd5b806306394c9b146100ed578063188071e61461010f578063330ef2311461012f575b600080fd5b3480156100f957600080fd5b5061010d610108366004610e4d565b610335565b005b34801561011b57600080fd5b5061010d61012a366004610e71565b6103ca565b61010d61013d366004610ea6565b610632565b34801561014e57600080fd5b506003545b6040519081526020015b60405180910390f35b34801561017257600080fd5b50610153610181366004610e4d565b6001600160a01b031660009081526006602052604090205490565b3480156101a857600080fd5b5061010d6101b7366004610ea6565b61090e565b3480156101c857600080fd5b5061010d61097f565b3480156101dd57600080fd5b5061010d6101ec366004610e4d565b610a64565b3480156101fd57600080fd5b506002546001600160a01b03165b6040516001600160a01b03909116815260200161015d565b34801561022f57600080fd5b5061010d61023e366004610ea6565b610ae8565b34801561024f57600080fd5b50600154610153565b34801561026457600080fd5b506102ab610273366004610ea6565b60009081526005602052604090206001810154600282015460038301546004909301546001600160a01b039092169390929160ff1690565b604080516001600160a01b0390951685526020850193909352918301521515606082015260800161015d565b3480156102e357600080fd5b5061010d6102f2366004610ea6565b610b50565b34801561030357600080fd5b506000546001600160a01b031661020b565b34801561032157600080fd5b5061010d610330366004610ebf565b610c31565b6000546001600160a01b031633146103685760405162461bcd60e51b815260040161035f90610ee1565b60405180910390fd5b600080546001600160a01b038381166001600160a01b031983168117909355604080519190921680825260208201939093527fd58299b712891143e76310d5e664c4203c940a67db37cf856bdaa3c5c76a802c91015b60405180910390a15050565b6040516331a9108f60e11b815260048101839052839033906001600160a01b03831690636352211e9060240160206040518083038186803b15801561040e57600080fd5b505afa158015610422573d6000803e3d6000fd5b505050506040513d601f19601f820116820180604052508101906104469190610f2a565b6001600160a01b0316146104ac5760405162461bcd60e51b815260206004820152602760248201527f4f6e6c7920746f6b656e206f776e6572732063616e20707574207468656d20666044820152666f722073616c6560c81b606482015260840161035f565b6004546040805160208101929092526bffffffffffffffffffffffff19606087901b16908201526054810184905260009060740160408051808303601f190181529181528151602092830120600081815260059093529082208054336001600160a01b0319918216178255600180830180549092166001600160a01b038b16179091556002820188905560039091018690556004805492945090929091610554908490610f47565b909155505060405163c87b56dd60e01b8152600481018590526000906001600160a01b0384169063c87b56dd9060240160006040518083038186803b15801561059c57600080fd5b505afa1580156105b0573d6000803e3d6000fd5b505050506040513d6000823e601f3d908101601f191682016040526105d89190810190610fb3565b9050336001600160a01b0316866001600160a01b0316837fedb9bcc509764747e9a869005eece6e1a1bf4936195e4454f5f0de1f64a1b95988888660405161062293929190611060565b60405180910390a4505050505050565b6000818152600560205260409020600301543410156106935760405162461bcd60e51b815260206004820152601760248201527f4e6f7420656e6f7567682066756e647320746f20627579000000000000000000604482015260640161035f565b60008181526005602052604090206004015460ff161515600114156106ef5760405162461bcd60e51b815260206004820152601260248201527113d999995c9a5b99c81a5cc818db1bdcd95960721b604482015260640161035f565b600081815260056020526040908190206001810154815460029092015492516331a9108f60e11b815260048101939093526001600160a01b03908116929116908290636352211e9060240160206040518083038186803b15801561075257600080fd5b505afa158015610766573d6000803e3d6000fd5b505050506040513d601f19601f8201168201806040525081019061078a9190610f2a565b6001600160a01b0316146108155760405162461bcd60e51b815260206004820152604660248201527f4f66666572206973206e6f206c6f6e6765722076616c69642c20746f6b656e2060448201527f776173207472616e736665726564206f75747369646520746865206d61726b6560648201526574706c61636560d01b608482015260a40161035f565b600082815260056020908152604080832060048101805460ff19166001179055546001600160a01b03168352600690915281208054349290610858908490610f47565b90915550506000828152600560205260409081902080546002909101549151632142170760e11b81526001600160a01b03918216600482015233602482015260448101929092528216906342842e0e90606401600060405180830381600087803b1580156108c557600080fd5b505af11580156108d9573d6000803e3d6000fd5b50506040513392508491507f0cfb1c3841b1ebe2ad43e9d641c358c0d40c4a10fc3c2ee73fd956a2658ed14490600090a35050565b6002546001600160a01b031633146109385760405162461bcd60e51b815260040161035f906110a1565b61094181610de3565b600380549082905560408051828152602081018490527f5a6bd78968654f72639dc4a3bdee336c790fbfcad4b54cd244713c1274327dba91016103be565b336000908152600660205260409020546109ea5760405162461bcd60e51b815260206004820152602660248201527f596f7520646f6e2774206861766520616e792062616c616e636520746f20776960448201526574686472617760d01b606482015260840161035f565b33600081815260066020526040808220805490839055905190929183156108fc02918491818181858888f19350505050158015610a2b573d6000803e3d6000fd5b5060405181815233907fddc398b321237a8d40ac914388309c2f52a08c134e4dc4ce61e32f57cb7d80f19060200160405180910390a250565b6002546001600160a01b03163314610a8e5760405162461bcd60e51b815260040161035f906110a1565b600280546001600160a01b038381166001600160a01b031983168117909355604080519190921680825260208201939093527ff884bf7ed9e748837a6aa4897a91ebbf4c3fd6f2b099a8db96cadb4116bc493791016103be565b6000546001600160a01b03163314610b125760405162461bcd60e51b815260040161035f90610ee1565b600180549082905560408051828152602081018490527fed81e3b86a4c89915e0dded89fd29d4c004c3e4ed4df033c866d964bf8185a0a91016103be565b6000818152600560205260409020546001600160a01b03163314610bc25760405162461bcd60e51b815260206004820152602360248201527f4f6e6c792073656c6c65722063616e20706572666f726d20746869732061637460448201526234b7b760e91b606482015260840161035f565b60008181526005602052604080822080546001600160a01b0319908116825560018201805490911690556002810183905560038101839055600401805460ff1916905551339183917f12f32b32b0219966d83751d629b500d75ba2b2d7dda18dcbb71bbb6dcd28d5779190a350565b60008281526005602052604090206004015460ff16151560011415610c8d5760405162461bcd60e51b815260206004820152601260248201527113d999995c9a5b99c81a5cc818db1bdcd95960721b604482015260640161035f565b60008281526005602052604090819020600181015460029091015491516331a9108f60e11b815260048101929092526001600160a01b03169033908290636352211e9060240160206040518083038186803b158015610ceb57600080fd5b505afa158015610cff573d6000803e3d6000fd5b505050506040513d601f19601f82011682018060405250810190610d239190610f2a565b6001600160a01b031614610d8e5760405162461bcd60e51b815260206004820152602c60248201527f4f6e6c792074686520746f6b656e206f776e65722063616e20706572666f726d60448201526b103a3434b99030b1ba34b7b760a11b606482015260840161035f565b600083815260056020526040908190206003018390555183907f0172b169b47029a14f432b31a97dd89dc96c1c09754ce9d23c79f9f1c0dd878a90610dd69085815260200190565b60405180910390a2505050565b6101f4811115610e355760405162461bcd60e51b815260206004820152601d60248201527f50726f7669646572206665652063616e6e6f7420657863656564203525000000604482015260640161035f565b50565b6001600160a01b0381168114610e3557600080fd5b600060208284031215610e5f57600080fd5b8135610e6a81610e38565b9392505050565b600080600060608486031215610e8657600080fd5b8335610e9181610e38565b95602085013595506040909401359392505050565b600060208284031215610eb857600080fd5b5035919050565b60008060408385031215610ed257600080fd5b50508035926020909101359150565b60208082526029908201527f4f6e6c7920746865206f70657261746f722063616e20706572666f726d20746860408201526834b99030b1ba34b7b760b91b606082015260800190565b600060208284031215610f3c57600080fd5b8151610e6a81610e38565b60008219821115610f6857634e487b7160e01b600052601160045260246000fd5b500190565b634e487b7160e01b600052604160045260246000fd5b60005b83811015610f9e578181015183820152602001610f86565b83811115610fad576000848401525b50505050565b600060208284031215610fc557600080fd5b815167ffffffffffffffff80821115610fdd57600080fd5b818401915084601f830112610ff157600080fd5b81518181111561100357611003610f6d565b604051601f8201601f19908116603f0116810190838211818310171561102b5761102b610f6d565b8160405282815287602084870101111561104457600080fd5b611055836020830160208801610f83565b979650505050505050565b838152826020820152606060408201526000825180606084015261108b816080850160208701610f83565b601f01601f191691909101608001949350505050565b60208082526029908201527f4f6e6c79207468652070726f76696465722063616e20706572666f726d20746860408201526834b99030b1ba34b7b760b91b60608201526080019056fea26469706673582212204728775c50eb60dd1ad77a63c747e9f34ba00bd30bbf6b512a4e42000f067be964736f6c63430008090033",
  "linkReferences": {},
  "deployedLinkReferences": {}
}